:020000040000FA
:0600000033EF16F01200C0
:020006001200E6
:08000800F2A402D011EF13F085
:100010009EA002D075EF13F01200D08EF28E120067
:10002000056A046A100EE76ED89008360936043661
:1000300005360D50045C0E50055805E30D50045E66
:0C0040000E50055A082AE72EF0D71200D7
:01004C0000B3
:100050000900742D0000A50300000D000000692DAB
:100060000000B20300000B0000004C000000C803B9
:100070000000010000005C2D0000980300000D004E
:100080000000342D00001F03000028000000262D72
:1000900000008A0300000E0000000B2D0000470343
:1000A00000001B000000F32C000062030000180099
:0E00B0000000D42C0000000300001F00000020
:0200BE00D9CF98
:1000C000E6FFE1CFD9FFE652FD0EDBCF16F0FE0EC4
:1000D000DBCF17F017C016F0176A640E1702F3CFC4
:1000E00017F01602F3CF16F0F4501726FD0EDBCFF3
:1000F00018F0FE0EDBCF19F0040ED890193218322A
:10010000E804FBE10A0E1902F3CF19F01802F3CF4D
:1001100018F0F450192616501810146E17501910B4
:10012000156E0F0EE76EFD0EDBCF1AF0FE0EDBCF65
:100130001BF0E7501A161B6A14501A10DF6EDF50BE
:1001400000D0E552E552E7CFD9FF1200D9CFE6FF44
:10015000E1CFD9FFFE0EDB50F00BE83A060DFE0EA4
:10016000DBCFE7FFF350E75EFE0EE7CFDBFFDB50B0
:10017000146E156A14C0F3FF15C0F4FF00D0E552E9
:10018000E7CFD9FF1200D9CFE6FFE1CFD9FF020EAA
:10019000E1260A0E146E14C00EF0FE0EDBCF09F03D
:1001A00041EC16F00950DF6E0A0E146E14C00EF00A
:1001B000FE0EDBCF09F041EC16F0010E05C0DBFFAF
:1001C000DB500F0B146E0F0EDF14100DF3501410D4
:1001D000146E020EE15C03E200D0E16AE552E16ECA
:1001E0001450E552E7CFD9FF1200D9CFE6FFE1CF97
:1001F000D9FF0E0EE126FD0EDBCF14F0FE0EDBCF95
:1002000015F00A0E0D6E0E6A14C008F015C009F044
:1002100010EC00F004C014F005C015F00A0E14C074
:10022000DBFF0B0E15C0DBFF0C0EDB6A0D0EDB6A6D
:100230000A0EDB50E76E040EE7CFDBFFFD0EDBCFCF
:1002400014F0FE0EDBCF15F00A0E0D6E0E6A14C010
:1002500008F015C009F010EC00F008C014F009C057
:1002600015F0060E14C0DBFF070E15C0DBFF080EED
:10027000DB6A090EDB6A060EDBCF06F0070EDBCF6A
:1002800007F0080EDBCF08F0090EDBCF09F00A0EED
:100290000B6E0C6A0D6A0E6A1AEC15F00A0E02C09B
:1002A000DBFF0B0E03C0DBFF0C0E04C0DBFF0D0EEB
:1002B00005C0DBFF0A0EDB50E76E030EE7CFDBFF66
:1002C000060EDBCF06F0070EDBCF07F0080EDBCF04
:1002D00008F0090EDBCF09F00A0E0B6E0C6A0D6AEE
:1002E0000E6A1AEC15F0060E06C0DBFF070E07C0FB
:1002F000DBFF080E08C0DBFF090E09C0DBFF060E9E
:10030000DBCF06F0070EDBCF07F0080EDBCF08F0DF
:10031000090EDBCF09F00A0E0B6E0C6A0D6A0E6A2D
:100320001AEC15F00A0E02C0DBFF0B0E03C0DBFF58
:100330000C0E04C0DBFF0D0E05C0DBFF0A0EDB5008
:10034000E76E020EE7CFDBFF060EDBCF06F0070EEF
:10035000DBCF07F0080EDBCF08F0090EDBCF09F08A
:100360000A0E0B6E0C6A0D6A0E6A1AEC15F0060E78
:1003700006C0DBFF070E07C0DBFF080E08C0DBFF6F
:10038000090E09C0DBFF060EDBCF06F0070EDBCF40
:1003900007F0080EDBCF08F0090EDBCF09F00A0EDC
:1003A0000B6E0C6A0D6A0E6A1AEC15F00A0E02C08A
:1003B000DBFF0B0E03C0DBFF0C0E04C0DBFF0D0EDA
:1003C00005C0DBFF0A0EDB50E76E010EE7CFDBFF57
:1003D000060EDBCF06F0070EDBCF07F0080EDBCFF3
:1003E00008F0090EDBCF09F00A0E0B6E0C6A0D6ADD
:1003F0000E6A1AEC15F0060E06C0DBFF070E07C0EA
:10040000DBFF080E08C0DBFF090E09C0DBFF060E8C
:10041000DB50DF6E050EDB6AF36EDBCFF4FFF350CB
:10042000F45C21E2D9CF14F0DACF15F0050EDB50E1
:100430000F011424E96E000E1520EA6EEF50E66EEF
:10044000050EDB50E76EFB0EDBCFE9FFFC0EDBCFCA
:10045000EAFFE750E926000EEA22E552E750EF6E88
:10046000050EDB2AD9D70E0EE15C02E2E16AE55205
:10047000E16EE552E7CFD9FF1200D9CFE6FFE1CF19
:10048000D9FF080EE1260A0E146E14C00EF0FE0EFF
:10049000DBCF09F041EC16F00550E66ED950060F9F
:1004A000E96EDACFEAFFE552E750EE6EED6A060E2E
:1004B000DB50E76E020EE7CFDBFF0A0E146E14C0AE
:1004C0000EF0FE0EDBCF09F041EC16F00950E66E9F
:1004D000D950040FE96EDACFEAFFE552E750EE6E2D
:1004E000ED6A040EDBCF14F0050EDBCF15F00A0E1B
:1004F0000D6E0E6A14C008F015C009F010EC00F083
:1005000004C014F005C015F0060E14C0DBFF070E82
:1005100015C0DBFF060EDB50E76E010EE7CFDBFFF9
:100520000A0E146E156A040EDBCF08F0050EDBCF41
:1005300009F014C00DF015C00EF010EC00F0040E20
:1005400008C0DBFF050E09C0DBFF040EDB50DF6EC9
:10055000030EDB6AF36EDBCFF4FFF350F45C21E2B1
:10056000D9CF14F0DACF15F0030EDB500F011424AD
:10057000E96E000E1520EA6EEF50E66E030EDB50BA
:10058000E76EFC0EDBCFE9FFFD0EDBCFEAFFE750A5
:10059000E926000EEA22E552E750EF6E030EDB2A51
:1005A000D9D7080EE15C02E2E16AE552E16EE5525C
:1005B000E7CFD9FF1200D9CFE6FFE1CFD9FF130E65
:1005C000E126FB0EDBCF06F0FC0EDBCF07F0FD0EC5
:1005D000DBCF08F0FE0EDBCF09F00A0E0B6E0C6AC3
:1005E0000D6A0E6A1AEC15F00F0E02C0DBFF100E3A
:1005F00003C0DBFF110E04C0DBFF120E05C0DBFFE2
:100600000F0EDB50E76E090EE7CFDBFFFB0EDBCFF3
:1006100006F0FC0EDBCF07F0FD0EDBCF08F0FE0E80
:10062000DBCF09F00A0E0B6E0C6A0D6A0E6A1AEC2B
:1006300015F00B0E06C0DBFF0C0E07C0DBFF0D0E26
:1006400008C0DBFF0E0E09C0DBFF0B0EDBCF06F090
:100650000C0EDBCF07F00D0EDBCF08F00E0EDBCF5C
:1006600009F00A0E0B6E0C6A0D6A0E6A1AEC15F090
:100670000F0E02C0DBFF100E03C0DBFF110E04C023
:10068000DBFF120E05C0DBFF0F0EDB50E76E080E1E
:10069000E7CFDBFF0B0EDBCF06F00C0EDBCF07F056
:1006A0000D0EDBCF08F00E0EDBCF09F00A0E0B6E3D
:1006B0000C6A0D6A0E6A1AEC15F00B0E06C0DBFF11
:1006C0000C0E07C0DBFF0D0E08C0DBFF0E0E09C0CD
:1006D000DBFF0B0EDBCF06F00C0EDBCF07F00D0EB1
:1006E000DBCF08F00E0EDBCF09F00A0E0B6E0C6AA2
:1006F0000D6A0E6A1AEC15F00F0E02C0DBFF100E29
:1007000003C0DBFF110E04C0DBFF120E05C0DBFFD0
:100710000F0EDB50E76E070EE7CFDBFF0B0EDBCFD4
:1007200006F00C0EDBCF07F00D0EDBCF08F00E0E3F
:10073000DBCF09F00A0E0B6E0C6A0D6A0E6A1AEC1A
:1007400015F00B0E06C0DBFF0C0E07C0DBFF0D0E15
:1007500008C0DBFF0E0E09C0DBFF0B0EDBCF06F07F
:100760000C0EDBCF07F00D0EDBCF08F00E0EDBCF4B
:1007700009F00A0E0B6E0C6A0D6A0E6A1AEC15F07F
:100780000F0E02C0DBFF100E03C0DBFF110E04C012
:10079000DBFF120E05C0DBFF0F0EDB50E76E060E0F
:1007A000E7CFDBFF0B0EDBCF06F00C0EDBCF07F045
:1007B0000D0EDBCF08F00E0EDBCF09F00A0E0B6E2C
:1007C0000C6A0D6A0E6A1AEC15F00B0E06C0DBFF00
:1007D0000C0E07C0DBFF0D0E08C0DBFF0E0E09C0BC
:1007E000DBFF0B0EDBCF06F00C0EDBCF07F00D0EA0
:1007F000DBCF08F00E0EDBCF09F00A0E0B6E0C6A91
:100800000D6A0E6A1AEC15F00F0E02C0DBFF100E17
:1008100003C0DBFF110E04C0DBFF120E05C0DBFFBF
:100820000F0EDB50E76E050EE7CFDBFF0B0EDBCFC5
:1008300006F00C0EDBCF07F00D0EDBCF08F00E0E2E
:10084000DBCF09F00A0E0B6E0C6A0D6A0E6A1AEC09
:1008500015F00B0E06C0DBFF0C0E07C0DBFF0D0E04
:1008600008C0DBFF0E0E09C0DBFF0B0EDBCF06F06E
:100870000C0EDBCF07F00D0EDBCF08F00E0EDBCF3A
:1008800009F00A0E0B6E0C6A0D6A0E6A1AEC15F06E
:100890000F0E02C0DBFF100E03C0DBFF110E04C001
:1008A000DBFF120E05C0DBFF0F0EDB50E76E040E00
:1008B000E7CFDBFF0B0EDBCF06F00C0EDBCF07F034
:1008C0000D0EDBCF08F00E0EDBCF09F00A0E0B6E1B
:1008D0000C6A0D6A0E6A1AEC15F00B0E06C0DBFFEF
:1008E0000C0E07C0DBFF0D0E08C0DBFF0E0E09C0AB
:1008F000DBFF0B0EDBCF06F00C0EDBCF07F00D0E8F
:10090000DBCF08F00E0EDBCF09F00A0E0B6E0C6A7F
:100910000D6A0E6A1AEC15F00F0E02C0DBFF100E06
:1009200003C0DBFF110E04C0DBFF120E05C0DBFFAE
:100930000F0EDB50E76E030EE7CFDBFF0B0EDBCFB6
:1009400006F00C0EDBCF07F00D0EDBCF08F00E0E1D
:10095000DBCF09F00A0E0B6E0C6A0D6A0E6A1AECF8
:1009600015F00B0E06C0DBFF0C0E07C0DBFF0D0EF3
:1009700008C0DBFF0E0E09C0DBFF0B0EDBCF06F05D
:100980000C0EDBCF07F00D0EDBCF08F00E0EDBCF29
:1009900009F00A0E0B6E0C6A0D6A0E6A1AEC15F05D
:1009A0000F0E02C0DBFF100E03C0DBFF110E04C0F0
:1009B000DBFF120E05C0DBFF0F0EDB50E76E020EF1
:1009C000E7CFDBFF0B0EDBCF06F00C0EDBCF07F023
:1009D0000D0EDBCF08F00E0EDBCF09F00A0E0B6E0A
:1009E0000C6A0D6A0E6A1AEC15F00B0E06C0DBFFDE
:1009F0000C0E07C0DBFF0D0E08C0DBFF0E0E09C09A
:100A0000DBFF0B0EDBCF06F00C0EDBCF07F00D0E7D
:100A1000DBCF08F00E0EDBCF09F00A0E0B6E0C6A6E
:100A20000D6A0E6A1AEC15F00F0E02C0DBFF100EF5
:100A300003C0DBFF110E04C0DBFF120E05C0DBFF9D
:100A40000F0EDB50E76E010EE7CFDBFF0B0EDBCFA7
:100A500006F00C0EDBCF07F00D0EDBCF08F00E0E0C
:100A6000DBCF09F00A0E0B6E0C6A0D6A0E6A1AECE7
:100A700015F00B0E06C0DBFF0C0E07C0DBFF0D0EE2
:100A800008C0DBFF0E0E09C0DBFF0B0EDB50DF6E74
:100A90000A0EDB6AF36EDBCFF4FFF350F45C22E264
:100AA000D9CF14F0DACF15F00A0EDB500F01142461
:100AB000E96E000E1520EA6EEF503009E66E0A0E60
:100AC000DB50E76EF90EDBCFE9FFFA0EDBCFEAFF72
:100AD000E750E926000EEA22E552E750EF6E0A0ED3
:100AE000DB2AD8D7130EE15C02E2E16AE552E16E3F
:100AF000E552E7CFD9FF1200D9CFE6FFE1CFD9FF0A
:100B0000FE0EDB50F00BE83A060DFE0EDBCFE7FFE2
:100B1000F350E75EFE0EE7CFDBFFDB5000D0E5527F
:100B2000E7CFD9FF1200D9CFE6FFE1CFD9FF0A0EF8
:100B3000146E14C00EF0FE0EDBCF09F041EC16F07F
:100B40000950060DFE0EDBCFE7FFF350E726FE0E41
:100B5000E7CFDBFFDB50146E156A14C0F3FF15C03E
:100B6000F4FF00D0E552E7CFD9FF1200D9CFE6FF5E
:100B7000E1CFD9FF060EE126F36EFC0EDBCFF4FFCA
:100B8000F350F45C71E2020EDB6A030EDB6A040EC2
:100B9000DB6A050EDB6ADF6AFC0EDB50DF5C58E2C5
:100BA000FC0EDBCFE6FFDF28E552E75CE76E010EC7
:100BB000E7CFDBFFF36E040EF3CFDBFF050EDB6A3E
:100BC000010EDB50000814E20A0E086E096A040EDA
:100BD000DBCF0DF0050EDBCF0EF0A1EC15F0040E0F
:100BE00006C0DBFF050E07C0DBFF010EDB06E8D702
:100BF000020EDBCF16F0030EDBCF17F0DF50E76EEF
:100C0000FD0EDBCFE9FFFE0EDBCFEAFFE750E92662
:100C1000000EEA22EF500F0B186E196A040EDBCF9C
:100C200008F0050EDBCF09F018C00DF019C00EF06A
:100C3000A1EC15F016500624146E17500720156EFF
:100C4000020E14C0DBFF030E15C0DBFFDF2AA4D7A2
:100C5000020EDBCF14F0030EDBCF15F014C0F3FF50
:100C600015C0F4FF04D003D0F36AF46A00D0060E76
:100C7000E15C02E2E16AE552E16EE552E7CFD9FFBD
:020C8000120060
:0E0C8200D9CFE6FFE1CFD9FFFE0EDB04E96E0D
:100C9000EA6AD890E936EA36200EE926030EEA22FF
:100CA000EECF14F0EFCF15F014C0F3FF15C0F4FF32
:100CB00000D0E552E7CFD9FF1200D9CFE6FFE1CF50
:100CC000D9FFFE0EDBCFE6FFE66A5FEC00F0E552EF
:100CD000E552FF0FE96EEA6AD890E936EA362E0E41
:100CE000E926030EEA22EECF14F0EFCF15F014C080
:100CF000F3FF15C0F4FF00D0E552E7CFD9FF120093
:100D0000D9CFE6FFE1CFD9FFFAEC11F0D00EE66EB5
:100D10003EEC12F0E552E66A3EEC12F0E552FAECD7
:100D200011F0D10EE66E3EEC12F0E552010EE66EC9
:100D300085EC12F0E552E66EFD0EDBCFE9FFFE0E0C
:100D4000DBCFEAFFE552E750EF6E010EE66E85EC71
:100D500012F0E552E66E010EE76EFD0EDBCFE9FF05
:100D6000FE0EDBCFEAFFE750E926000EEA22E5524D
:100D7000E750EF6E010EE66E85EC12F0E552E66E7E
:100D8000020EE76EFD0EDBCFE9FFFE0EDBCFEAFFC2
:100D9000E750E926000EEA22E552E750EF6E010E19
:100DA000E66E85EC12F0E552E66E030EE76EFD0E80
:100DB000DBCFE9FFFE0EDBCFEAFFE750E926000EAE
:100DC000EA22E552E750EF6E010EE66E85EC12F076
:100DD000E552E66E040EE76EFD0EDBCFE9FFFE0E78
:100DE000DBCFEAFFE750E926000EEA22E552E750A2
:100DF000EF6E010EE66E85EC12F0E552E66E050E22
:100E0000E76EFD0EDBCFE9FFFE0EDBCFEAFFE7501A
:100E1000E926000EEA22E552E750EF6EE66A85EC1D
:100E200012F0E552E66E060EE76EFD0EDBCFE9FF2F
:100E3000FE0EDBCFEAFFE750E926000EEA22E5527C
:100E4000E750EF6E10EC12F0E552E7CFD9FF120039
:100E5000D9CFE6FFE1CFD9FFFAEC11F0D00EE66E64
:100E60003EEC12F0E552E66A3EEC12F0E552FD0E61
:100E7000DBCFE9FFFE0EDBCFEAFFEF50E66E3EEC84
:100E800012F0E552010EE76EFD0EDBCFE9FFFE0E1C
:100E9000DBCFEAFFE750E926000EEA22EF50E66ECC
:100EA0003EEC12F0E552020EE76EFD0EDBCFE9FFDD
:100EB000FE0EDBCFEAFFE750E926000EEA22EF50F4
:100EC000E66E3EEC12F0E552030EE76EFD0EDBCF50
:100ED000E9FFFE0EDBCFEAFFE750E926000EEA222B
:100EE000EF50E66E3EEC12F0E552040EE76EFD0E9A
:100EF000DBCFE9FFFE0EDBCFEAFFE750E926000E6D
:100F0000EA22EF50E66E3EEC12F0E552050EE76E77
:100F1000FD0EDBCFE9FFFE0EDBCFEAFFE750E9264F
:100F2000000EEA22EF50E66E3EEC12F0E552060E9D
:100F3000E76EFD0EDBCFE9FFFE0EDBCFEAFFE750E9
:100F4000E926000EEA22EF50E66E3EEC12F0E55282
:100F500010EC12F0E552E7CFD9FF1200D9CFE6FF2F
:100F6000E1CFD9FFFD0EDB041DE1FE0EDB50400991
:100F7000E76EFE0EE7CFDBFFFC0EDB0408E1FE0EA2
:100F8000DB502009E76EFE0EE7CFDBFF0AD0FC0E38
:100F9000DB5007E1FE0EDB50DF0BE76EFE0EE7CF06
:100FA000DBFF0AD0FD0EDB5007E1FE0EDB50BF0B6E
:100FB000E76EFE0EE7CFDBFFFE0EDB5000D0E55202
:100FC000E7CFD9FF1200D9CFE6FFE1CFD9FFFD0E61
:100FD000DBCFE9FFFE0EDBCFEAFFEE52EF50E66E0D
:100FE000FB0EDBCFE9FFFC0EDBCFEAFFEE52E55252
:100FF000E750EF6EFD0EDBCFE9FFFE0EDBCFEAFF21
:10100000EF50E66EFB0EDBCFE9FFFC0EDBCFEAFF15
:10101000E552E750EF6EFD0EDBCFE9FFFE0EDBCFB2
:10102000EAFF020EE926000EEA22EFCF14F00C0EC2
:10103000145C42E3FD0EDBCFE9FFFE0EDBCFEAFFDF
:10104000020EE926000EEA22EF50F40FE66EFB0EC8
:10105000DBCFE9FFFC0EDBCFEAFF020EE926000E34
:10106000EA22E552E750EF6EFB0EDBCFE9FFFC0E04
:10107000DBCFEAFF070EE926000EEA22010EEF6E33
:101080000C0E146EFD0EDBCFE9FFFE0EDBCFEAFF88
:10109000020EE926000EEA22EF50145C0CE1FB0E72
:1010A000DBCFE9FFFC0EDBCFEAFF020EE926000EE4
:1010B000EA220C0EEF6E4BD0FD0EDBCFE9FFFE0EE9
:1010C000DBCFEAFF020EE926000EEA22EFCF14F092
:1010D0000C0E145C3CE2FD0EDBCFE9FFFE0EDBCF15
:1010E000EAFF020EE926000EEA22EF50E66EFB0E42
:1010F000DBCFE9FFFC0EDBCFEAFF020EE926000E94
:10110000EA22E552E750EF6EFB0EDBCFE9FFFC0E63
:10111000DBCFEAFF070EE926000EEA22EF6AFD0E9A
:10112000DBCFE9FFFE0EDBCFEAFF020EE926000E61
:10113000EA22EF500CE1FB0EDBCFE9FFFC0EDBCF28
:10114000EAFF020EE926000EEA220C0EEF6EE552CF
:10115000E7CFD9FF1200D9CFE6FFE1CFD9FFFD0ECF
:10116000DBCFE9FFFE0EDBCFEAFFEE52EF50E66E7B
:10117000FB0EDBCFE9FFFC0EDBCFEAFFEE52E552C0
:10118000E750EF6EFD0EDBCFE9FFFE0EDBCFEAFF8F
:10119000EF50E66EFB0EDBCFE9FFFC0EDBCFEAFF84
:1011A000E552E750EF6EFD0EDBCFE9FFFE0EDBCF21
:1011B000EAFF070EE926000EEA22EF0436E1FD0EF3
:1011C000DBCFE9FFFE0EDBCFEAFF020EE926000EC1
:1011D000EA22EF500C0FE66EFB0EDBCFE9FFFC0EB0
:1011E000DBCFEAFF020EE926000EEA22E552E750C5
:1011F000EF6E0C0E146EFD0EDBCFE9FFFE0EDBCFA3
:10120000EAFF020EE926000EEA22EF50145C0CE120
:10121000FB0EDBCFE9FFFC0EDBCFEAFF020EE92677
:10122000000EEA220C0EEF6E3FD0FD0EDBCFE9FF81
:10123000FE0EDBCFEAFF070EE926000EEA22EF5092
:1012400033E1FD0EDBCFE9FFFE0EDBCFEAFF020E3E
:10125000E926000EEA22EF50E66EFB0EDBCFE9FF37
:10126000FC0EDBCFEAFF020EE926000EEA22E55271
:10127000E750EF6E0C0E146EFD0EDBCFE9FFFE0E95
:10128000DBCFEAFF020EE926000EEA22EF50145CE3
:101290000BE1FB0EDBCFE9FFFC0EDBCFEAFF020E1A
:1012A000E926000EEA22EF6AE552E7CFD9FF1200E5
:1012B000D9CFE6FFE1CFD9FFE652DF6AFD0EDB04AE
:1012C0000DE1FE0EDB500C0FDF6E0C0E146EFE0EE9
:1012D000DB50145C02E10C0EDF6E16D0FD0EDB500D
:1012E0000BE1FE0EDB50DF6E0C0E146EFE0EDB50BB
:1012F000145C01E1DF6A08D0AA0E146EFD0EDB500B
:10130000145C02E1AA0EDF6EDF5000D0E552E55218
:10131000E7CFD9FF1200D9CFE6FFE1CFD9FFFAEC32
:1013200011F0D00EE66E3EEC12F0E552E66A3EECAD
:1013300012F0E552050EE76EFD0EDBCFE9FFFE0E63
:10134000DBCFEAFFE750E926000EEA22EF500F0B51
:10135000146E040EE76EFD0EDBCFE9FFFE0EDBCF51
:10136000EAFFE750E926000EEA22EF500F0B100DBE
:10137000F3501410E66E3EEC12F0E552030EE76EE9
:10138000FD0EDBCFE9FFFE0EDBCFEAFFE750E926DB
:10139000000EEA22EF500F0B146E020EE76EFD0EE8
:1013A000DBCFE9FFFE0EDBCFEAFFE750E926000EB8
:1013B000EA22EF500F0B100DF3501410E66E3EECC6
:1013C00012F0E552010EE76EFD0EDBCFE9FFFE0ED7
:1013D000DBCFEAFFE750E926000EEA22EF500F0BC1
:1013E000146EFD0EDBCFE9FFFE0EDBCFEAFFEF5000
:1013F0000F0B100DF3501410E66E3EEC12F0E55298
:1014000010EC12F0E552E7CFD9FF1200D9CFE6FF7A
:10141000E1CFD9FFFAEC11F0D00EE66E3EEC12F0FF
:10142000E552040EE66E3EEC12F0E552010EE76E58
:10143000FD0EDBCFE9FFFE0EDBCFEAFFE750E9262A
:10144000000EEA22EF500F0B146EFD0EDBCFE9FF0A
:10145000FE0EDBCFEAFFEF500F0B100DF350141010
:10146000E66E3EEC12F0E552030EE76EFD0EDBCFAA
:10147000E9FFFE0EDBCFEAFFE750E926000EEA2285
:10148000EF500F0B146E020EE76EFD0EDBCFE9FF7F
:10149000FE0EDBCFEAFFE750E926000EEA22EF500E
:1014A0000F0B100DF3501410E66E3EEC12F0E552E7
:1014B000050EE76EFD0EDBCFE9FFFE0EDBCFEAFF88
:1014C000E750E926000EEA22EF500F0B146E040ECF
:1014D000E76EFD0EDBCFE9FFFE0EDBCFEAFFE75044
:1014E000E926000EEA22EF500F0B100DF3501410F6
:1014F000E66E3EEC12F0E55210EC12F0E552E7CF4A
:10150000D9FF1200D9CFE6FFE1CFD9FFFAEC11F0F5
:10151000D00EE66E3EEC12F0E552030EE66E3EECA7
:1015200012F0E552FE0EDBCFE6FF3EEC12F0E55284
:1015300010EC12F0E552E7CFD9FF1200D9CFE6FF49
:10154000E1CFD9FFE652E66AD00EE66ED6EC12F095
:10155000E552E552DF6E7F0EDF14DF6EDFCFE6FF70
:10156000E66AD00EE66EF8EC12F0E552E552E5526E
:10157000900EE66E070EE66ED00EE66EF8EC12F0F8
:10158000E552E552E552E552E552E7CFD9FF1200A8
:10159000810EE66E030EE66E80EC06F0E552E55233
:1015A000030146510301815D05E081C346F3030158
:0615B000010E1F6F120086
:0A15B600D9CFE6FFE1CFD9FF050E03
:1015C000E126FE0EDB50080802E2000E66D0FE0E99
:1015D000DBCF58F3DF6A03015851DF5C0AE2DF50CA
:1015E000EA6A500FE96E030EEA22BCC3EFFFDF2A5E
:1015F000F2D7480E5E6F030E5F6FDF6A0B0EDF5C83
:1016000048E2010EDB6AFE0EDB50F36E010EDBCF0B
:10161000F4FFF350F45C15E2DF50EA6AB20FE96EB2
:10162000030EEA22EF50E66E010EDB50EA6A480F25
:10163000E96E030EEA22E552E750EF6E010EDB2A57
:10164000E2D7020EDB6A640EF36E020EDBCFF4FF0C
:10165000F350F45C1CE22DD8030EF36EF3CFDBFFE6
:10166000040EDB6A030EDBCF14F0DB06040EDBCFC7
:1016700015F001E2DB061450151006E0080EE66EC8
:1016800013EC16F0E552EED7020EDB2ADCD7DF2A88
:10169000B5D70301596B010E00D0146E050EE15C45
:1016A00002E2E16AE552E16E1450E552E7CFD9FF5C
:1016B000120003014751010A14E0010A01E03BD086
:1016C0005951EA6A5E25E96E5F51EA22EF50E66EF3
:1016D00041D9E5520301592B5851595D01E3596B2A
:1016E0002AD05951EA6A5E25E96E5F51EA22EF502D
:1016F000E66E30D9E5520301592B5851595D01E38B
:10170000596B5A2B000E5B235C515A5D5D515B593E
:1017100011E35A6B5B6B480E5E1902E1030E5F1911
:1017200005E1500E5E6F030E5F6F04D0480E5E6FD2
:10173000030E5F6F00D01200D9CFE6FFE1CFD9FFD3
:10174000E652DF6ADF6A03015851DF5C16E2DF50C0
:10175000E76EFD0EDBCFE9FFFE0EDBCFEAFFE750C1
:10176000E926000EEA22EF50E66E53D9E552000951
:1017700002E1000E41D0DF2AE6D7DF6A5851DF5C74
:1017800038E2DF50E76EFD0EDBCFE9FFFE0EDBCF68
:10179000EAFFE750E926000EEA22EF50200809E1AF
:1017A000DF50EA6A480FE96E030EEA22BCC3EFFF7E
:1017B0001ED0DF50E76EFD0EDBCFE9FFFE0EDBCF64
:1017C000EAFFE750E926000EEA22EF50D00FEA6A5E
:1017D000B20FE96E030EEA22EF50E66EDF50EA6ABE
:1017E000480FE96E030EEA22E552E750EF6EDF2A5A
:1017F000C5D7596B010E00D0E552E552E7CFD9FFAE
:101800001200D9CFE6FFE1CFD9FFE652DF6ADF6AE7
:1018100003015851DF5C19E2DF50E76EFD0EDBCFAC
:10182000E9FFFE0EDBCFEAFFE750E926000EEA22D1
:10183000EF50E66EDF50EA6A480FE96E030EEA22C7
:10184000E552E750EF6EDF2AE3D7596BE552E552D8
:10185000E7CFD9FF1200D9CFE6FFE1CFD9FFE6529B
:10186000DF6AFE0EDBCF14F003015851D880145408
:1018700002E2000E2DD0FD0EDBCFE6FFCAD8E55206
:10188000000902E1000E24D0FD0EDB5020080AE121
:10189000FE0EDB50EA6A480FE96E030EEA22BCC373
:1018A000EFFF14D0FD0EDB50D00FEA6AB20FE96EE5
:1018B000030EEA22EF50E66EFE0EDB50EA6A480F96
:1018C000E96E030EEA22E552E750EF6E010E00D0FA
:1018D000E552E552E7CFD9FF1200D9CFE6FFE1CFBD
:1018E000D9FFFD0EDBCF5CF3FE0EDBCF5DF3010E07
:1018F0000F0B030105E0D8905D335C33E806FBE194
:1019000003015A6B5B6B010E476FE552E7CFD9FFBE
:1019100012000301480E5E6F030E5F6F476B1200EB
:10192000D9CFE6FFE1CFD9FFE652DF6A0301585174
:10193000DF5C0AE2DF50EA6A480FE96E030EEA2232
:10194000BCC3EFFFDF2AF2D7596BE552E552E7CF70
:10195000D9FF1200D9CFE6FFE1CFD9FF8080808286
:10196000808480868088808AFE0EDB1C836E030163
:101970005951050A15E0010A11E0070A0DE0010AB4
:1019800009E0030A05E0010A01E00CD080900AD0CA
:10199000809208D0809406D0809604D0809802D09F
:1019A000809A00D0E552E7CFD9FF1200D9CFE6FFE9
:1019B000E1CFD9FF020EE126FE0EDB50DF6EFE0EF8
:1019C000DBCFE6FFFD0EDB50E552E724DF5C17E2DC
:1019D000DF50EA6A480FE96E030EEA22010EEFCFEC
:1019E000DBFFDB508009E66EDF50EA6A480FE96EE4
:1019F000030EEA22E552E750EF6EDF2AE0D7020E2F
:101A0000E15C02E2E16AE552E16EE552E7CFD9FF1F
:101A10001200D9CFE6FFE1CFD9FFE652DF6AFE0E12
:101A2000DB50200803E1010EDF6E0ED0300EF36EA6
:101A3000FE0EDBCFF4FFF350F45C06E3FE0EDB504A
:101A4000390802E3010EDF6EDF5000D0E552E552A7
:101A5000E7CFD9FF1200D9CFE6FFE1CFD9FFE65299
:101A6000DF6ADF6A03015851DF5C16E2DF50E76E80
:101A7000FD0EDBCFE9FFFE0EDBCFEAFFE750E926E4
:101A8000000EEA22EF50E66EC4DFE552000902E1E3
:101A9000000E4AD0DF2AE6D7FC0EDB50DF6EFB0ECD
:101AA000DBCFE6FFFC0EDB50E552E724DF5C38E2DB
:101AB000DF50E76EFD0EDBCFE9FFFE0EDBCFEAFF66
:101AC000E750E926000EEA22EF50200809E1DF5036
:101AD000EA6A480FE96E030EEA22BCC3EFFF1ED08C
:101AE000DF50E76EFD0EDBCFE9FFFE0EDBCFEAFF36
:101AF000E750E926000EEA22EF50D00FEA6AB20F53
:101B0000E96E030EEA22EF50E66EDF50EA6A480FF4
:101B1000E96E030EEA22E552E750EF6EDF2ABFD7E7
:101B20000301596B010E00D0E552E552E7CFD9FF12
:101B30001200D9CFE6FFE1CFD9FFE652FD0EDBCF91
:101B40005CF3FE0EDBCF5DF3010E0F0B030105E02E
:101B5000D8905D335C33E806FBE103015A6B5B6BA5
:101B6000FC0EDB50606F616BDF6A5851DF5C1CE27A
:101B7000DF50146E156A6051141802E16151151896
:101B800011E0DF50EA6A480FE96E030EEA22EF50D7
:101B9000E66EDF50EA6A500FE96E030EEA22E55264
:101BA000E750EF6EDF2AE1D7500E6025E96E030E95
:101BB0006121EA6EEF6A010E476FE552E552E7CF09
:041BC000D9FF120037
:0C1BC400D9CFE6FFE1CFD9FFE652000EBA
:101BD000E66EE66A3EEC15F0E552E5520301006F51
:101BE00067EC16F003010051020A5EE0030A37E0D9
:101BF000010A01E0A3D0DF6A060EDF5C0CE2DF50D1
:101C0000EA6A010FE96E030EEA22300EEF6E67EC0E
:101C100016F0DF2AF1D7DF6A060EDF5C16E2100E3F
:101C2000DF24E66EE66A3EEC15F0E552E552E66E1C
:101C3000DF50EA6A070FE96E030EEA22E552E75029
:101C4000EF6E67EC16F0DF2AE7D7010EE66E030EA3
:101C5000E66E9CEC0BF0E552E55284826FD08492E4
:101C6000DF6A060EDF5C0CE2DF50EA6A070FE96EFE
:101C7000030EEA22300EEF6E67EC16F0DF2AF1D782
:101C800002DA070EE66E030EE66E9CEC0BF0E552F0
:101C9000E552E66AF40EE66E010EE66E99EC0DF082
:101CA000E552E552E5524AD00D0EE66E030EE66EA1
:101CB00080EC06F0E552E55271D9010EE66E030E96
:101CC000E66E9CEC0BF0E552E552DF6A060EDF5C37
:101CD00016E2100EDF24E66EE66A3EEC15F0E552E1
:101CE000E552E66EDF50EA6A070FE96E030EEA225C
:101CF000E552E750EF6E67EC16F0DF2AE7D7DF6AB0
:101D0000060EDF5C16E2DF50EA6A070FE96E030E8B
:101D1000EA22EFCF14F0DF50EA6A010FE96E030EFA
:101D2000EA22EF50145C03E00301010E1D6FDF2A6D
:101D3000E7D703011D5101E1848400D0E552E5524B
:101D4000E7CFD9FF1200D9CFE6FFE1CFD9FFE652A6
:101D500003010051020A01E1D6D0030A55E0010A4D
:101D600001E017D1E66A05EC11F0E55201081FE128
:101D700003011E051AE11E6B68D9010EE66E030E03
:101D8000E66E9CEC0BF0E552E5529BD9020EE66E36
:101D9000000EE66EE66AC1EC14F0E552E552E5523B
:101DA00067EC16F00301020E006FF3D02CD0010E89
:101DB000E66E05EC11F0E552010825E164D9070E45
:101DC000E66E030EE66E9CEC0BF0E552E552030165
:101DD0001C6B1CC3E6FFF40EE66E010EE66E99EC7A
:101DE0000DF0E552E552E552010EE66E000EE66E8C
:101DF000E66AC1EC14F0E552E552E55267EC16F0E4
:101E00000301010E006FC5D08492030EE66E05EC4F
:101E100011F0E552010812E103011C2B1CC3E6FF7F
:101E2000F40EE66E010EE66E99EC0DF0E552E55209
:101E3000E55203011C51050801E21C6B020EE66E1F
:101E400005EC11F0E55201082AE103011C51EA6A90
:101E5000070FE96E030EEA22EF2A1C51EA6A070F08
:101E6000E96E030EEA22EFCF14F01C51EA6AAC0FC0
:101E7000E96E030EEA22EF50D880145408E21C5198
:101E8000EA6A070FE96E030EEA22300EEF6E070EC4
:101E9000E66E030EE66E9CEC0BF0E552E552010E89
:101EA000E66E05EC11F0E55201082CE189EC0CF02E
:101EB00084820301010E1E6FDF6A060EDF5C15E2ED
:101EC000DF50EA6A070FE96E030EEA22EF50E66E72
:101ED000100EDF24E66EE66AC1EC14F0E552E5521E
:101EE000E55267EC16F0DF2AE8D7E66A000EE66EE8
:101EF000E66AC1EC14F0E552E552E55267EC16F0E3
:101F00000301006B46D0E66A05EC11F0E5520108CA
:101F10000EE1E66A000EE66EE66AC1EC14F0E552E8
:101F2000E552E55267EC16F00301006B32D00D0E5E
:101F3000E66E030EE66E80EC06F0E552E5522ED812
:101F4000010EE66E030EE66E9CEC0BF0E552E552D8
:101F5000DF6A060EDF5C16E2DF50EA6A070FE96E01
:101F6000030EEA22EFCF14F0DF50EA6A010FE96EA8
:101F7000030EEA22EF50145C03E00301010E1D6F13
:101F8000DF2AE7D703011D5102E1848401D0849444
:101F900000D0E552E552E7CFD9FF1200D9CFE6FFD6
:101FA000E1CFD9FF030EE126DF6A10C3DFFFDF06B2
:101FB000DF0404E1240E03010F2714D0020EDF5CBE
:101FC00004E1480E03010F270DD0030EDF5C04E18E
:101FD000720E03010F2706D0040EDF5C03E1960E9C
:101FE00003010F27990E03010F5D07E1590E0E5DE6
:101FF00004E1590E0D5D01E1006B0F0E0D15300F60
:10200000016FF00E0D15E8380F0B300F026F0F0E39
:102010000E15300F036FF00E0E15E8380F0B300F52
:10202000046F0F0E0F15300F056FF00E0F15E83807
:102030000F0B300F066F030EE15C02E2E16AE5521E
:10204000E16EE552E7CFD9FF1200D9CFE6FFE1CF2D
:10205000D9FF020EE126DF6A060EDF5C0AE2DF50DE
:10206000EA6A010FE96E030EEA22300EEF6EDF2AF4
:10207000F3D7020EE15C02E2E16AE552E16EE5525D
:10208000E7CFD9FF1200D9CFE6FFE1CFD9FF020E8B
:10209000E126DF6A060EDF5C0AE2DF50EA6A070F1C
:1020A000E96E030EEA22300EEF6EDF2AF3D7020E3E
:1020B000E15C02E2E16AE552E16EE552E7CFD9FF69
:1020C0001200300E0301015D146E300E025D100D22
:1020D000F3501410146F300E035D146E300E045D57
:1020E000100DF3501410156F300E055D146E300E88
:1020F000065D100DF3501410166F140EE66E030EED
:0C210000E66E28EC07F0E552E5521200F4
:04210C00D9CFE6FF42
:10211000E1CFD9FFE6528DD8DF6A080EDF5C09E215
:10212000DF50EA6A620FE96E030EEA22EF6ADF2AE5
:10213000F4D7E552E552E7CFD9FF1200D9CFE6FF39
:10214000E1CFD9FF9BD8FC0EDBCFE6FFFD0EDBCF46
:10215000E6FFFE0EDBCFE6FFB9D8E552E552E552C9
:10216000E552E7CFD9FF1200D9CFE6FFE1CFD9FF83
:10217000E652FC0EDB50DF6EFB0EDB50D880DF54E6
:102180001AE37CD8DFCFE6FF176ADF34FE0B173681
:10219000166EFD0EDB501624146EFE0EDB5017205B
:1021A000156E14C0E6FF15C0E6FF90D8E552E55263
:1021B000E552DF2AE1D7E552E552E7CFD9FF120019
:1021C000D9CFE6FFE1CFD9FFE652DF6A57D8DF6A01
:1021D000080EDF5C15E2DFCFE6FF156ADF34FE0B89
:1021E0001536146E6A0E1426030E152214C0E6FF6F
:1021F00015C0E6FF6BD8E552E552E552DF2AE8D775
:10220000E552E552E7CFD9FF1200D9CFE6FFE1CF83
:10221000D9FFFE0EEA6ADB34FE0BEA36E96E6A0E7F
:10222000E926030EEA22EF5000D0E552E7CFD9FFAE
:102230001200D9CFE6FFE1CFD9FFE652DF6A080EE0
:10224000DF5C17E2EA6ADF34FE0BEA36E96E6A0EFB
:10225000E926030EEA22EF6AEA6ADF34FE0BEA3669
:10226000E96E6A0EE926030EEA22EE52EF6ADF2AD1
:10227000E6D7E552E552E7CFD9FF12008150010BB6
:102280000301626F8150020B01E0010E636F815008
:10229000040B01E0010E646F8150080B01E0010E98
:1022A000656F8150100B01E0010E666F8150200BAD
:1022B00001E0010E676F8150400B01E0010E686F75
:1022C0008150800B01E0010E696F1200D9CFE6FF4B
:1022D000E1CFD9FFFD0EDBCFE9FFFE0EDBCFEAFF3A
:1022E000EF50010A3DE0010A01E074D0FC0EDB5022
:1022F000EA6A620FE96E030EEA22EF50010B27E152
:10230000FD0EDBCFE9FFFE0EDBCFEAFFEE52EF2A38
:10231000FD0EDBCFE9FFFE0EDBCFEAFFEECF14F0C0
:10232000EFCF15F0020E0001155C10E3FD0EDBCFC0
:10233000E9FFFE0EDBCFEAFF010EEF6EFD0EDBCFF5
:10234000E9FFFE0EDBCFEAFFEE52EF6A08D0FD0E8A
:10235000DBCFE9FFFE0EDBCFEAFFEE52EF6A3AD0A9
:10236000FC0EDB50EA6A620FE96E030EEA22EF50C0
:10237000010B010826E1FD0EDBCFE9FFFE0EDBCFEE
:10238000EAFFEE52EF2AFD0EDBCFE9FFFE0EDBCFB8
:10239000EAFFEECF14F0EFCF15F0020E0001155C4E
:1023A0000FE3FD0EDBCFE9FFFE0EDBCFEAFFEF6AA6
:1023B000FD0EDBCFE9FFFE0EDBCFEAFFEE52EF6A48
:1023C00008D0FD0EDBCFE9FFFE0EDBCFEAFFEE52B9
:0C23D000EF6A00D0E552E7CFD9FF120001
:0423DC00C76AC78E77
:1023E000590EC86E280EC66EC56A9E96A196948632
:1023F000948812009496949882888286050EE66EE0
:102400005CEC16F0E5528298050EE66E5CEC16F078
:10241000E5528296050EE66E5CEC16F0E55212006F
:10242000949694988298050EE66E5CEC16F0E55250
:102430008286050EE66E5CEC16F0E552828812008C
:10244000D9CFE6FFE1CFD9FFE65294969488DF6AB0
:10245000DF500A080EE3050EE66E5CEC16F0E5525E
:102460008286050EE66E5CEC16F0E5528296DF2A57
:10247000EFD7E552E552E7CFD9FF1200D9CFE6FFFB
:10248000E1CFD9FFE65294969498DF6A080EDF5C9C
:1024900025E2FE0EDB50800B02E0010E01D0000EA3
:1024A000E8B08288E8A08298030EE66E5CEC16F035
:1024B000E5528286060EE66E5CEC16F0E5528296D8
:1024C000020EE66E5CEC16F0E552FE0EDBCFF3FF7B
:1024D000F39EF346F3CFDBFFDF2AD8D79488020EB2
:1024E000E66E5CEC16F0E5528286060EE66E5CEC5B
:1024F00016F0E5528296060EE66E5CEC16F0E5529A
:10250000E552E552E7CFD9FF1200D9CFE6FFE1CF80
:10251000D9FF020EE126DF6A949694989488010E02
:10252000DB6A080EF36E010EDBCFF4FFF350F45CB0
:1025300017E28286060EE66E5CEC16F0E552DF9E30
:10254000DF468250100B01E0010EDF10DF6E829635
:10255000060EE66E5CEC16F0E552010EDB2AE1D7C2
:102560009498FE0EDB0402E1829801D08288020E6C
:10257000E66E5CEC16F0E5528286060EE66E5CECCA
:1025800016F0E5528296060EE66E5CEC16F0E55209
:10259000DF50146E020EE15C03E200D0E16AE55206
:1025A000E16E1450E552E7CFD9FF1200D9CFE6FF14
:1025B000E1CFD9FFE6521EDFFE0EDBCFE6FF5EDF86
:1025C000E552FD0EDBCFE6FF59DFE55213DFFE0ECD
:1025D000DB28E66E53DFE552E66A97DFE552DF6EF1
:1025E0001FDFDF5000D0E552E552E7CFD9FF1200E0
:1025F000D9CFE6FFE1CFD9FFFDDEFE0EDBCFE6FF50
:102600003DDFE552FD0EDBCFE6FF38DFE552FC0E85
:10261000DBCFE6FF33DFE55203DFE552E7CFD9FF3B
:022620001200A6
:0E262200DACFE4FFE2CFDAFFE9CFE4FFEACF40
:10263000E4FFF6CFE4FFF7CFE4FFF5CFE4FFF3CFFD
:10264000E4FFF4CFE4FFFACFE4FF00EE00F0140E55
:10265000E80403E3EECFE4FFFBD700EE14F0080E2E
:10266000E80403E3EECFE4FFFBD7E652F294030164
:10267000922B000E9323942B9523962B97238C510A
:102680008D1107E005D08DC3FAFF03018C51F96E5F
:10269000FADF8AC3E6FF8BC3E6FFDBEC15F0E552F9
:1026A000E552E55200EE1BF0080EE80403E3E5CF27
:1026B000EDFFFBD700EE13F0140EE80403E3E5CFC3
:1026C000EDFFFBD7E5CFFAFFE5CFF4FFE5CFF3FF52
:1026D000E5CFF5FFE5CFF7FFE5CFF6FFE5CFEAFF62
:1026E000E5CFE9FFE5CFDAFF1100DACFE4FFE2CF73
:1026F000DAFFE9CFE4FFEACFE4FFF6CFE4FFF7CF5C
:10270000E4FFF5CFE4FFF3CFE4FFF4CFE4FFFACF2B
:10271000E4FF00EE00F0140EE80403E3EECFE4FF64
:10272000FBD700EE14F0080EE80403E3EECFE4FF5D
:10273000FBD7E6529E908EC3E6FF8FC3E6FFBFEC49
:1027400015F0E552E55203019051911107E005D0D3
:1027500091C3FAFF03019051F96EFADFE55200EEE2
:102760001BF0080EE80403E3E5CFEDFFFBD700EE16
:1027700013F0140EE80403E3E5CFEDFFFBD7E5CF3C
:10278000FAFFE5CFF4FFE5CFF3FFE5CFF5FFE5CFA7
:10279000F7FFE5CFF6FFE5CFEAFFE5CFE9FFE5CFAD
:1027A000DAFF1100D9CFE6FFE1CFD9FF9F0EE66E29
:1027B000F7EC15F0E552FD0EDBCF8AF3FE0EDBCF12
:1027C0008BF3FB0EDBCF8CF3FC0EDBCF8DF3FD0E1A
:1027D000DBCFE6FFFE0EDBCFE6FFDBEC15F0E552CC
:1027E000E552E552E7CFD9FF1200D9CFE6FFE1CF9E
:1027F000D9FFC50EE66E60EC15F0E552FD0EDBCF9D
:10280000E6FFFE0EDBCFE6FFBFEC15F0E552E5522A
:102810009F80FD0EDBCF8EF3FE0EDBCF8FF3FB0E22
:10282000DBCF90F3FC0EDBCF91F3E552E7CFD9FF7E
:02283000120094
:0E283200D9CFE6FFE1CFD9FF040EE126DF6A21
:10284000030EDB6A81EC15F09EEC0AF0060EE66ED4
:10285000DBEC0AF0E552000EE66EE66ABF0EE66EAD
:10286000E00EE66ED2EC13F0E552E552E552E55289
:10287000B20EE66E160EE66E5F0EE66EF00EE66EB9
:10288000F5EC13F0E552E552E552E552E2EC0DF0BD
:102890000DEC00F00301F40E925D010E935905E377
:1028A00052EC16F00301926B936B03010A0E945DD8
:1028B000000E955906E3E0EC10F00301946B956B64
:1028C000DF2A0A0EDF5C03E3A3EC0EF0DF6AE2D737
:1028D000040EE15C02E2E16AE552E16EE552E7CF07
:0428E000D9FF12000A
:0C28E400500EF66E000EF76E000EF86E3F
:1028F00003010900F550C26F0900F550C36F03E1F1
:10290000C26701D03DD00900F550BD6F0900F550F8
:10291000BE6F0900F550BF6F09000900F550E96E60
:102920000900F550EA6E090009000900F550C06F72
:102930000900F550C16F09000900F6CFC4F3F7CFC5
:10294000C5F3F8CFC6F3BDC3F6FFBEC3F7FFBFC3E1
:10295000F8FF0301C05302E1C15307E00900F5503D
:10296000EE6EC007F8E2C107F9D7C4C3F6FFC5C3CE
:10297000F7FFC6C3F8FF0301C207000EC35BBFD752
:02298000120043
:0E298200D9CFE6FFDACFE6FFE1CFD9FFE2CFF3
:10299000DAFFE652DF6AFF0EE76EFC0EDBCF14F0C3
:1029A000E75014161450A96EFB0EDB50A86EA69EBD
:1029B000A69CA684F250800B01E0010EDF6EF29E11
:1029C000550EA76EAA0EA76EA682A6B2FED7DF503E
:1029D000E8B0F28EE8A0F29EA694E552E552E5CF6B
:0829E000DAFFE7CFD9FF120076
:0829E800446563004E6F7600A8
:1029F0004F63740053657000417567004A756C0041
:102A00004A756E004D617900417072004D6172002F
:102A1000466562004A616E00536174004672690047
:102A20005468750057656400547565004D6F6E00FD
:042A300053756E006C
:0C2A3400056A046A036A026A200EE76E5D
:102A4000D89006360736083609360236033604367D
:102A500005360B50025C0C5003580D5004580E50B4
:102A6000055809E30B50025E0C50035A0D50045AEE
:0C2A70000E50055A062AE72EE4D712008B
:042A7C00D9CFE6FFC9
:102A8000DACFE6FFE1CFD9FFE2CFDAFFFF0EE76E44
:102A9000FC0EDBCF14F0FD0EDBCF15F0E750141663
:102AA000156A1450A96EA69CA69EA6800000000080
:102AB000A85000D0E552E5CFDAFFE7CFD9FF1200EA
:102AC000D9CFE6FFDACFE6FFE1CFD9FFE2CFDAFFD9
:102AD000FD0EDB507E0BCD6EFD0EDBAC02D0CD8E3D
:102AE00001D0CD9ECF6ACE6A9E90DBAE02D09D8093
:102AF00001D09D90CD80E552E5CFDAFFE7CFD9FF39
:022B00001200C1
:0E2B0200C26A0F0EC16E700ED3129B8C94909F
:102B1000949C948E956A92909292929492969298A6
:102B2000929A9692969484949380938293849386B7
:102B30009388938C938C938E949694989690F18E20
:022B4000120081
:0E2B420008C012F008500D02F4CF07F0F3CFD8
:102B500006F009500E02F4CF09F0F3CF08F00D0291
:102B6000F3500726F4500822E86A092212500E0298
:0E2B7000F3500726F4500822E86A0922000CF0
:022B7E00D9CFAD
:102B8000E6FFDACFE6FFE1CFD9FFE2CFDAFFE65288
:102B9000E652FC0EDBCFDEFFDBCFDDFF010EDB50AC
:102BA000CF6EDF50CE6EE552E552E552E5CFDAFF4B
:062BB000E7CFD9FF12007F
:0A2BB600D9CFE6FFDACFE6FFE1CF4A
:102BC000D9FFE2CFDAFFE652E652FC0EDBCFDEFFA2
:102BD000DBCFDDFF010EDB50D76EDF50D66EE55246
:0E2BE000E552E552E5CFDAFFE7CFD9FF12004C
:022BEE00D9CF3D
:102BF000E6FFDACFE6FFE1CFD9FFE2CFDAFFFD0E45
:102C0000DB507F0BD56ED76AD66AF294FD0EDBAE31
:102C100002D0F28A01D0F29AD58EE552E5CFDAFFE2
:062C2000E7CFD9FF12000E
:0A2C2600FF0EE3501C6E480E01D0B3
:102C30004C0EE76EE72EFED7E76AE72EFED71C2E76
:062C4000F7D700001200AE
:0A2C4600000EF36E00EE00F0060E23
:102C500001D81200EA6002D0EE6AFCD7F350E960B6
:062C60001200EE6AFCD731
:0A2C660010EE80F020EE80F0F86A16
:102C7000019C72EC14F003EC00F019EC14F0FBD79B
:022C8000120040
:0E2C8200056A080EE76ED890093605360E502A
:0E2C9000055C02E3056E092AE72EF7D7120055
:022C9E00030130
:102CA000C86B12000301C80503E1C86B849003D010
:082CB000010EC86F84801200C0
:082CB800FF0EE350E84E12008C
:0E2CC000000000D000D000D0E82EFAD712009D
:022CCE00A6B2AC
:042CD000FED7120019
:0C2CD400000000000000000000000000F4
:102CE00000000000000000000000000000000000E4
:032CF000000000E1
:0D2CF30000000000000000000000000000D4
:0B2D00000000000000000000000000C8
:052D0B000000000000C3
:102D100000000000000000000000000000000000B3
:062D2000000000000000AD
:0A2D260000000000000000000000A3
:042D3000000000009F
:0C2D340000302A2C2A282A242A202A1CDD
:102D40002A182A142A102A0C2A082A042A002AFCE3
:0C2D500029F829F429F029EC29E82900D1
:042D5C004944454F52
:092D60004E49435300333632376B
:072D69003F065B4F666D7D24
:042D7000077F6F006A
:0C2D740000000001010114393539353927
:012D80003919
:020000040030CA
:0100010008F6
:010002001BE2
:0100030012EA
:010005008179
:010006008178
:010008000FE8
:01000900C036
:01000A000FE6
:01000B00E014
:01000C000FE4
:01000D0040B2
:00000001FF
