:020000040000FA
:060000008BEF14F012006A
:020006001200E6
:08000800F2A402D07BEF11F01D
:100010009EA002D0DFEF11F01200D08EF28E1200FF
:10002000056A046A100EE76ED89008360936043661
:1000300005360D50045C0E50055805E30D50045E66
:0C0040000E50055A082AE72EF0D71200D7
:01004C0000B3
:1000500009001A2A0000B0030000070000000F2A60
:1000600000009B0300000B0000004C000000B803E0
:10007000000001000000022A00008E0300000D00B5
:100080000000DA2900001503000028000000CC2938
:100090000000800300000E000000B12900003D03B5
:1000A00000001B0000009929000058030000180000
:0E00B00000008429000000030000150000007D
:0200BE00D9CF98
:1000C000E6FFE1CFD9FFE652FD0EDBCF16F0FE0EC4
:1000D000DBCF17F017C016F0176A640E1702F3CFC4
:1000E00017F01602F3CF16F0F4501726FD0EDBCFF3
:1000F00018F0FE0EDBCF19F0040ED890193218322A
:10010000E804FBE10A0E1902F3CF19F01802F3CF4D
:1001100018F0F450192616501810146E17501910B4
:10012000156E0F0EE76EFD0EDBCF1AF0FE0EDBCF65
:100130001BF0E7501A161B6A14501A10DF6EDF50BE
:1001400000D0E552E552E7CFD9FF1200D9CFE6FF44
:10015000E1CFD9FFFE0EDB50F00BE83A060DFE0EA4
:10016000DBCFE7FFF350E75EFE0EE7CFDBFFDB50B0
:10017000146E156A14C0F3FF15C0F4FF00D0E552E9
:10018000E7CFD9FF1200D9CFE6FFE1CFD9FF020EAA
:10019000E1260A0E146E14C00EF0FE0EDBCF09F03D
:1001A00099EC14F00950DF6E0A0E146E14C00EF0B4
:1001B000FE0EDBCF09F099EC14F0010E05C0DBFF59
:1001C000DB500F0B146E0F0EDF14100DF3501410D4
:1001D000146E020EE15C03E200D0E16AE552E16ECA
:1001E0001450E552E7CFD9FF1200D9CFE6FFE1CF97
:1001F000D9FF0E0EE126FD0EDBCF14F0FE0EDBCF95
:1002000015F00A0E0D6E0E6A14C008F015C009F044
:1002100010EC00F004C014F005C015F00A0E14C074
:10022000DBFF0B0E15C0DBFF0C0EDB6A0D0EDB6A6D
:100230000A0EDB50E76E040EE7CFDBFFFD0EDBCFCF
:1002400014F0FE0EDBCF15F00A0E0D6E0E6A14C010
:1002500008F015C009F010EC00F008C014F009C057
:1002600015F0060E14C0DBFF070E15C0DBFF080EED
:10027000DB6A090EDB6A060EDBCF06F0070EDBCF6A
:1002800007F0080EDBCF08F0090EDBCF09F00A0EED
:100290000B6E0C6A0D6A0E6A84EC13F00A0E02C033
:1002A000DBFF0B0E03C0DBFF0C0E04C0DBFF0D0EEB
:1002B00005C0DBFF0A0EDB50E76E030EE7CFDBFF66
:1002C000060EDBCF06F0070EDBCF07F0080EDBCF04
:1002D00008F0090EDBCF09F00A0E0B6E0C6A0D6AEE
:1002E0000E6A84EC13F0060E06C0DBFF070E07C093
:1002F000DBFF080E08C0DBFF090E09C0DBFF060E9E
:10030000DBCF06F0070EDBCF07F0080EDBCF08F0DF
:10031000090EDBCF09F00A0E0B6E0C6A0D6A0E6A2D
:1003200084EC13F00A0E02C0DBFF0B0E03C0DBFFF0
:100330000C0E04C0DBFF0D0E05C0DBFF0A0EDB5008
:10034000E76E020EE7CFDBFF060EDBCF06F0070EEF
:10035000DBCF07F0080EDBCF08F0090EDBCF09F08A
:100360000A0E0B6E0C6A0D6A0E6A84EC13F0060E10
:1003700006C0DBFF070E07C0DBFF080E08C0DBFF6F
:10038000090E09C0DBFF060EDBCF06F0070EDBCF40
:1003900007F0080EDBCF08F0090EDBCF09F00A0EDC
:1003A0000B6E0C6A0D6A0E6A84EC13F00A0E02C022
:1003B000DBFF0B0E03C0DBFF0C0E04C0DBFF0D0EDA
:1003C00005C0DBFF0A0EDB50E76E010EE7CFDBFF57
:1003D000060EDBCF06F0070EDBCF07F0080EDBCFF3
:1003E00008F0090EDBCF09F00A0E0B6E0C6A0D6ADD
:1003F0000E6A84EC13F0060E06C0DBFF070E07C082
:10040000DBFF080E08C0DBFF090E09C0DBFF060E8C
:10041000DB50DF6E050EDB6AF36EDBCFF4FFF350CB
:10042000F45C21E2D9CF14F0DACF15F0050EDB50E1
:100430000F011424E96E000E1520EA6EEF50E66EEF
:10044000050EDB50E76EFB0EDBCFE9FFFC0EDBCFCA
:10045000EAFFE750E926000EEA22E552E750EF6E88
:10046000050EDB2AD9D70E0EE15C02E2E16AE55205
:10047000E16EE552E7CFD9FF1200D9CFE6FFE1CF19
:10048000D9FF080EE1260A0E146E14C00EF0FE0EFF
:10049000DBCF09F099EC14F00550E66ED950060F49
:1004A000E96EDACFEAFFE552E750EE6EED6A060E2E
:1004B000DB50E76E020EE7CFDBFF0A0E146E14C0AE
:1004C0000EF0FE0EDBCF09F099EC14F00950E66E49
:1004D000D950040FE96EDACFEAFFE552E750EE6E2D
:1004E000ED6A040EDBCF14F0050EDBCF15F00A0E1B
:1004F0000D6E0E6A14C008F015C009F010EC00F083
:1005000004C014F005C015F0060E14C0DBFF070E82
:1005100015C0DBFF060EDB50E76E010EE7CFDBFFF9
:100520000A0E146E156A040EDBCF08F0050EDBCF41
:1005300009F014C00DF015C00EF010EC00F0040E20
:1005400008C0DBFF050E09C0DBFF040EDB50DF6EC9
:10055000030EDB6AF36EDBCFF4FFF350F45C21E2B1
:10056000D9CF14F0DACF15F0030EDB500F011424AD
:10057000E96E000E1520EA6EEF50E66E030EDB50BA
:10058000E76EFC0EDBCFE9FFFD0EDBCFEAFFE750A5
:10059000E926000EEA22E552E750EF6E030EDB2A51
:1005A000D9D7080EE15C02E2E16AE552E16EE5525C
:1005B000E7CFD9FF1200D9CFE6FFE1CFD9FF130E65
:1005C000E126FB0EDBCF06F0FC0EDBCF07F0FD0EC5
:1005D000DBCF08F0FE0EDBCF09F00A0E0B6E0C6AC3
:1005E0000D6A0E6A84EC13F00F0E02C0DBFF100ED2
:1005F00003C0DBFF110E04C0DBFF120E05C0DBFFE2
:100600000F0EDB50E76E090EE7CFDBFFFB0EDBCFF3
:1006100006F0FC0EDBCF07F0FD0EDBCF08F0FE0E80
:10062000DBCF09F00A0E0B6E0C6A0D6A0E6A84ECC1
:1006300013F00B0E06C0DBFF0C0E07C0DBFF0D0E28
:1006400008C0DBFF0E0E09C0DBFF0B0EDBCF06F090
:100650000C0EDBCF07F00D0EDBCF08F00E0EDBCF5C
:1006600009F00A0E0B6E0C6A0D6A0E6A84EC13F028
:100670000F0E02C0DBFF100E03C0DBFF110E04C023
:10068000DBFF120E05C0DBFF0F0EDB50E76E080E1E
:10069000E7CFDBFF0B0EDBCF06F00C0EDBCF07F056
:1006A0000D0EDBCF08F00E0EDBCF09F00A0E0B6E3D
:1006B0000C6A0D6A0E6A84EC13F00B0E06C0DBFFA9
:1006C0000C0E07C0DBFF0D0E08C0DBFF0E0E09C0CD
:1006D000DBFF0B0EDBCF06F00C0EDBCF07F00D0EB1
:1006E000DBCF08F00E0EDBCF09F00A0E0B6E0C6AA2
:1006F0000D6A0E6A84EC13F00F0E02C0DBFF100EC1
:1007000003C0DBFF110E04C0DBFF120E05C0DBFFD0
:100710000F0EDB50E76E070EE7CFDBFF0B0EDBCFD4
:1007200006F00C0EDBCF07F00D0EDBCF08F00E0E3F
:10073000DBCF09F00A0E0B6E0C6A0D6A0E6A84ECB0
:1007400013F00B0E06C0DBFF0C0E07C0DBFF0D0E17
:1007500008C0DBFF0E0E09C0DBFF0B0EDBCF06F07F
:100760000C0EDBCF07F00D0EDBCF08F00E0EDBCF4B
:1007700009F00A0E0B6E0C6A0D6A0E6A84EC13F017
:100780000F0E02C0DBFF100E03C0DBFF110E04C012
:10079000DBFF120E05C0DBFF0F0EDB50E76E060E0F
:1007A000E7CFDBFF0B0EDBCF06F00C0EDBCF07F045
:1007B0000D0EDBCF08F00E0EDBCF09F00A0E0B6E2C
:1007C0000C6A0D6A0E6A84EC13F00B0E06C0DBFF98
:1007D0000C0E07C0DBFF0D0E08C0DBFF0E0E09C0BC
:1007E000DBFF0B0EDBCF06F00C0EDBCF07F00D0EA0
:1007F000DBCF08F00E0EDBCF09F00A0E0B6E0C6A91
:100800000D6A0E6A84EC13F00F0E02C0DBFF100EAF
:1008100003C0DBFF110E04C0DBFF120E05C0DBFFBF
:100820000F0EDB50E76E050EE7CFDBFF0B0EDBCFC5
:1008300006F00C0EDBCF07F00D0EDBCF08F00E0E2E
:10084000DBCF09F00A0E0B6E0C6A0D6A0E6A84EC9F
:1008500013F00B0E06C0DBFF0C0E07C0DBFF0D0E06
:1008600008C0DBFF0E0E09C0DBFF0B0EDBCF06F06E
:100870000C0EDBCF07F00D0EDBCF08F00E0EDBCF3A
:1008800009F00A0E0B6E0C6A0D6A0E6A84EC13F006
:100890000F0E02C0DBFF100E03C0DBFF110E04C001
:1008A000DBFF120E05C0DBFF0F0EDB50E76E040E00
:1008B000E7CFDBFF0B0EDBCF06F00C0EDBCF07F034
:1008C0000D0EDBCF08F00E0EDBCF09F00A0E0B6E1B
:1008D0000C6A0D6A0E6A84EC13F00B0E06C0DBFF87
:1008E0000C0E07C0DBFF0D0E08C0DBFF0E0E09C0AB
:1008F000DBFF0B0EDBCF06F00C0EDBCF07F00D0E8F
:10090000DBCF08F00E0EDBCF09F00A0E0B6E0C6A7F
:100910000D6A0E6A84EC13F00F0E02C0DBFF100E9E
:1009200003C0DBFF110E04C0DBFF120E05C0DBFFAE
:100930000F0EDB50E76E030EE7CFDBFF0B0EDBCFB6
:1009400006F00C0EDBCF07F00D0EDBCF08F00E0E1D
:10095000DBCF09F00A0E0B6E0C6A0D6A0E6A84EC8E
:1009600013F00B0E06C0DBFF0C0E07C0DBFF0D0EF5
:1009700008C0DBFF0E0E09C0DBFF0B0EDBCF06F05D
:100980000C0EDBCF07F00D0EDBCF08F00E0EDBCF29
:1009900009F00A0E0B6E0C6A0D6A0E6A84EC13F0F5
:1009A0000F0E02C0DBFF100E03C0DBFF110E04C0F0
:1009B000DBFF120E05C0DBFF0F0EDB50E76E020EF1
:1009C000E7CFDBFF0B0EDBCF06F00C0EDBCF07F023
:1009D0000D0EDBCF08F00E0EDBCF09F00A0E0B6E0A
:1009E0000C6A0D6A0E6A84EC13F00B0E06C0DBFF76
:1009F0000C0E07C0DBFF0D0E08C0DBFF0E0E09C09A
:100A0000DBFF0B0EDBCF06F00C0EDBCF07F00D0E7D
:100A1000DBCF08F00E0EDBCF09F00A0E0B6E0C6A6E
:100A20000D6A0E6A84EC13F00F0E02C0DBFF100E8D
:100A300003C0DBFF110E04C0DBFF120E05C0DBFF9D
:100A40000F0EDB50E76E010EE7CFDBFF0B0EDBCFA7
:100A500006F00C0EDBCF07F00D0EDBCF08F00E0E0C
:100A6000DBCF09F00A0E0B6E0C6A0D6A0E6A84EC7D
:100A700013F00B0E06C0DBFF0C0E07C0DBFF0D0EE4
:100A800008C0DBFF0E0E09C0DBFF0B0EDB50DF6E74
:100A90000A0EDB6AF36EDBCFF4FFF350F45C22E264
:100AA000D9CF14F0DACF15F00A0EDB500F01142461
:100AB000E96E000E1520EA6EEF503009E66E0A0E60
:100AC000DB50E76EF90EDBCFE9FFFA0EDBCFEAFF72
:100AD000E750E926000EEA22E552E750EF6E0A0ED3
:100AE000DB2AD8D7130EE15C02E2E16AE552E16E3F
:100AF000E552E7CFD9FF1200D9CFE6FFE1CFD9FF0A
:100B0000FE0EDB50F00BE83A060DFE0EDBCFE7FFE2
:100B1000F350E75EFE0EE7CFDBFFDB5000D0E5527F
:100B2000E7CFD9FF1200D9CFE6FFE1CFD9FF0A0EF8
:100B3000146E14C00EF0FE0EDBCF09F099EC14F029
:100B40000950060DFE0EDBCFE7FFF350E726FE0E41
:100B5000E7CFDBFFDB50146E156A14C0F3FF15C03E
:100B6000F4FF00D0E552E7CFD9FF1200D9CFE6FF5E
:100B7000E1CFD9FF060EE126F36EFC0EDBCFF4FFCA
:100B8000F350F45C71E2020EDB6A030EDB6A040EC2
:100B9000DB6A050EDB6ADF6AFC0EDB50DF5C58E2C5
:100BA000FC0EDBCFE6FFDF28E552E75CE76E010EC7
:100BB000E7CFDBFFF36E040EF3CFDBFF050EDB6A3E
:100BC000010EDB50000814E20A0E086E096A040EDA
:100BD000DBCF0DF0050EDBCF0EF0EBEC13F0040EC7
:100BE00006C0DBFF050E07C0DBFF010EDB06E8D702
:100BF000020EDBCF16F0030EDBCF17F0DF50E76EEF
:100C0000FD0EDBCFE9FFFE0EDBCFEAFFE750E92662
:100C1000000EEA22EF500F0B186E196A040EDBCF9C
:100C200008F0050EDBCF09F018C00DF019C00EF06A
:100C3000EBEC13F016500624146E17500720156EB7
:100C4000020E14C0DBFF030E15C0DBFFDF2AA4D7A2
:100C5000020EDBCF14F0030EDBCF15F014C0F3FF50
:100C600015C0F4FF04D003D0F36AF46A00D0060E76
:100C7000E15C02E2E16AE552E16EE552E7CFD9FFBD
:020C8000120060
:0E0C8200D9CFE6FFE1CFD9FFFE0EDB04E96E0D
:100C9000EA6AD890E936EA36160EE926030EEA2209
:100CA000EECF14F0EFCF15F014C0F3FF15C0F4FF32
:100CB00000D0E552E7CFD9FF1200D9CFE6FFE1CF50
:100CC000D9FFFE0EDBCFE6FFE66A5FEC00F0E552EF
:100CD000E552FF0FE96EEA6AD890E936EA36240E4B
:100CE000E926030EEA22EECF14F0EFCF15F014C080
:100CF000F3FF15C0F4FF00D0E552E7CFD9FF120093
:100D0000D9CFE6FFE1CFD9FF64EC10F0D00EE66E4C
:100D1000A8EC10F0E552E66AA8EC10F0E55264EC9D
:100D200010F0D10EE66EA8EC10F0E552010EE66E62
:100D3000EFEC10F0E552E66EFD0EDBCFE9FFFE0EA4
:100D4000DBCFEAFFE552E750EF6E010EE66EEFEC07
:100D500010F0E552E66E010EE76EFD0EDBCFE9FF07
:100D6000FE0EDBCFEAFFE750E926000EEA22E5524D
:100D7000E750EF6E010EE66EEFEC10F0E552E66E16
:100D8000020EE76EFD0EDBCFE9FFFE0EDBCFEAFFC2
:100D9000E750E926000EEA22E552E750EF6E010E19
:100DA000E66EEFEC10F0E552E66E030EE76EFD0E18
:100DB000DBCFE9FFFE0EDBCFEAFFE750E926000EAE
:100DC000EA22E552E750EF6E010EE66EEFEC10F00E
:100DD000E552E66E040EE76EFD0EDBCFE9FFFE0E78
:100DE000DBCFEAFFE750E926000EEA22E552E750A2
:100DF000EF6E010EE66EEFEC10F0E552E66E050EBA
:100E0000E76EFD0EDBCFE9FFFE0EDBCFEAFFE7501A
:100E1000E926000EEA22E552E750EF6EE66AEFECB3
:100E200010F0E552E66E060EE76EFD0EDBCFE9FF31
:100E3000FE0EDBCFEAFFE750E926000EEA22E5527C
:100E4000E750EF6E7AEC10F0E552E7CFD9FF1200D1
:100E5000D9CFE6FFE1CFD9FF64EC10F0D00EE66EFB
:100E6000A8EC10F0E552E66AA8EC10F0E552FD0E91
:100E7000DBCFE9FFFE0EDBCFEAFFEF50E66EA8EC1A
:100E800010F0E552010EE76EFD0EDBCFE9FFFE0E1E
:100E9000DBCFEAFFE750E926000EEA22EF50E66ECC
:100EA000A8EC10F0E552020EE76EFD0EDBCFE9FF75
:100EB000FE0EDBCFEAFFE750E926000EEA22EF50F4
:100EC000E66EA8EC10F0E552030EE76EFD0EDBCFE8
:100ED000E9FFFE0EDBCFEAFFE750E926000EEA222B
:100EE000EF50E66EA8EC10F0E552040EE76EFD0E32
:100EF000DBCFE9FFFE0EDBCFEAFFE750E926000E6D
:100F0000EA22EF50E66EA8EC10F0E552050EE76E0F
:100F1000FD0EDBCFE9FFFE0EDBCFEAFFE750E9264F
:100F2000000EEA22EF50E66EA8EC10F0E552060E35
:100F3000E76EFD0EDBCFE9FFFE0EDBCFEAFFE750E9
:100F4000E926000EEA22EF50E66EA8EC10F0E5521A
:100F50007AEC10F0E552E7CFD9FF1200D9CFE6FFC7
:100F6000E1CFD9FFFD0EDB041DE1FE0EDB50400991
:100F7000E76EFE0EE7CFDBFFFC0EDB0408E1FE0EA2
:100F8000DB502009E76EFE0EE7CFDBFF0AD0FC0E38
:100F9000DB5007E1FE0EDB50DF0BE76EFE0EE7CF06
:100FA000DBFF0AD0FD0EDB5007E1FE0EDB50BF0B6E
:100FB000E76EFE0EE7CFDBFFFE0EDB5000D0E55202
:100FC000E7CFD9FF1200D9CFE6FFE1CFD9FFFD0E61
:100FD000DBCFE9FFFE0EDBCFEAFFEE52EF50E66E0D
:100FE000FB0EDBCFE9FFFC0EDBCFEAFFEE52E55252
:100FF000E750EF6EFD0EDBCFE9FFFE0EDBCFEAFF21
:10100000EF50E66EFB0EDBCFE9FFFC0EDBCFEAFF15
:10101000E552E750EF6EFD0EDBCFE9FFFE0EDBCFB2
:10102000EAFF020EE926000EEA22EFCF14F00C0EC2
:10103000145C42E3FD0EDBCFE9FFFE0EDBCFEAFFDF
:10104000020EE926000EEA22EF50F40FE66EFB0EC8
:10105000DBCFE9FFFC0EDBCFEAFF020EE926000E34
:10106000EA22E552E750EF6EFB0EDBCFE9FFFC0E04
:10107000DBCFEAFF070EE926000EEA22010EEF6E33
:101080000C0E146EFD0EDBCFE9FFFE0EDBCFEAFF88
:10109000020EE926000EEA22EF50145C0CE1FB0E72
:1010A000DBCFE9FFFC0EDBCFEAFF020EE926000EE4
:1010B000EA220C0EEF6E4BD0FD0EDBCFE9FFFE0EE9
:1010C000DBCFEAFF020EE926000EEA22EFCF14F092
:1010D0000C0E145C3CE2FD0EDBCFE9FFFE0EDBCF15
:1010E000EAFF020EE926000EEA22EF50E66EFB0E42
:1010F000DBCFE9FFFC0EDBCFEAFF020EE926000E94
:10110000EA22E552E750EF6EFB0EDBCFE9FFFC0E63
:10111000DBCFEAFF070EE926000EEA22EF6AFD0E9A
:10112000DBCFE9FFFE0EDBCFEAFF020EE926000E61
:10113000EA22EF500CE1FB0EDBCFE9FFFC0EDBCF28
:10114000EAFF020EE926000EEA220C0EEF6EE552CF
:10115000E7CFD9FF1200D9CFE6FFE1CFD9FFFD0ECF
:10116000DBCFE9FFFE0EDBCFEAFFEE52EF50E66E7B
:10117000FB0EDBCFE9FFFC0EDBCFEAFFEE52E552C0
:10118000E750EF6EFD0EDBCFE9FFFE0EDBCFEAFF8F
:10119000EF50E66EFB0EDBCFE9FFFC0EDBCFEAFF84
:1011A000E552E750EF6EFD0EDBCFE9FFFE0EDBCF21
:1011B000EAFF070EE926000EEA22EF0436E1FD0EF3
:1011C000DBCFE9FFFE0EDBCFEAFF020EE926000EC1
:1011D000EA22EF500C0FE66EFB0EDBCFE9FFFC0EB0
:1011E000DBCFEAFF020EE926000EEA22E552E750C5
:1011F000EF6E0C0E146EFD0EDBCFE9FFFE0EDBCFA3
:10120000EAFF020EE926000EEA22EF50145C0CE120
:10121000FB0EDBCFE9FFFC0EDBCFEAFF020EE92677
:10122000000EEA220C0EEF6E3FD0FD0EDBCFE9FF81
:10123000FE0EDBCFEAFF070EE926000EEA22EF5092
:1012400033E1FD0EDBCFE9FFFE0EDBCFEAFF020E3E
:10125000E926000EEA22EF50E66EFB0EDBCFE9FF37
:10126000FC0EDBCFEAFF020EE926000EEA22E55271
:10127000E750EF6E0C0E146EFD0EDBCFE9FFFE0E95
:10128000DBCFEAFF020EE926000EEA22EF50145CE3
:101290000BE1FB0EDBCFE9FFFC0EDBCFEAFF020E1A
:1012A000E926000EEA22EF6AE552E7CFD9FF1200E5
:1012B000D9CFE6FFE1CFD9FFE652DF6AFD0EDB04AE
:1012C0000DE1FE0EDB500C0FDF6E0C0E146EFE0EE9
:1012D000DB50145C02E10C0EDF6E16D0FD0EDB500D
:1012E0000BE1FE0EDB50DF6E0C0E146EFE0EDB50BB
:1012F000145C01E1DF6A08D0AA0E146EFD0EDB500B
:10130000145C02E1AA0EDF6EDF5000D0E552E55218
:10131000E7CFD9FF1200D9CFE6FFE1CFD9FF64ECC8
:1013200010F0D00EE66EA8EC10F0E552E66AA8ECDC
:1013300010F0E552050EE76EFD0EDBCFE9FFFE0E65
:10134000DBCFEAFFE750E926000EEA22EF500F0B51
:10135000146E040EE76EFD0EDBCFE9FFFE0EDBCF51
:10136000EAFFE750E926000EEA22EF500F0B100DBE
:10137000F3501410E66EA8EC10F0E552030EE76E81
:10138000FD0EDBCFE9FFFE0EDBCFEAFFE750E926DB
:10139000000EEA22EF500F0B146E020EE76EFD0EE8
:1013A000DBCFE9FFFE0EDBCFEAFFE750E926000EB8
:1013B000EA22EF500F0B100DF3501410E66EA8EC5C
:1013C00010F0E552010EE76EFD0EDBCFE9FFFE0ED9
:1013D000DBCFEAFFE750E926000EEA22EF500F0BC1
:1013E000146EFD0EDBCFE9FFFE0EDBCFEAFFEF5000
:1013F0000F0B100DF3501410E66EA8EC10F0E55230
:101400007AEC10F0E552E7CFD9FF1200D9CFE6FF12
:10141000E1CFD9FF64EC10F0D00EE66EA8EC10F02E
:10142000E552040EE66EA8EC10F0E552010EE76EF0
:10143000FD0EDBCFE9FFFE0EDBCFEAFFE750E9262A
:10144000000EEA22EF500F0B146EFD0EDBCFE9FF0A
:10145000FE0EDBCFEAFFEF500F0B100DF350141010
:10146000E66EA8EC10F0E552030EE76EFD0EDBCF42
:10147000E9FFFE0EDBCFEAFFE750E926000EEA2285
:10148000EF500F0B146E020EE76EFD0EDBCFE9FF7F
:10149000FE0EDBCFEAFFE750E926000EEA22EF500E
:1014A0000F0B100DF3501410E66EA8EC10F0E5527F
:1014B000050EE76EFD0EDBCFE9FFFE0EDBCFEAFF88
:1014C000E750E926000EEA22EF500F0B146E040ECF
:1014D000E76EFD0EDBCFE9FFFE0EDBCFEAFFE75044
:1014E000E926000EEA22EF500F0B100DF3501410F6
:1014F000E66EA8EC10F0E5527AEC10F0E552E7CF7A
:10150000D9FF1200D9CFE6FFE1CFD9FF64EC10F08C
:10151000D00EE66EA8EC10F0E552030EE66EA8ECD5
:1015200010F0E552FE0EDBCFE6FFA8EC10F0E5521E
:101530007AEC10F0E552E7CFD9FF1200D9CFE6FFE1
:10154000E1CFD9FFE652E66AD00EE66E40EC11F02C
:10155000E552E552DF6E7F0EDF14DF6EDFCFE6FF70
:10156000E66AD00EE66E62EC11F0E552E552E55205
:10157000900EE66E070EE66ED00EE66E62EC11F08F
:10158000E552E552E552E552E552E7CFD9FF1200A8
:10159000770EE66E030EE66E80EC06F0E552E5523D
:1015A00003013C510301775D05E077C33CF3030180
:0615B000010E156F120090
:0A15B600D9CFE6FFE1CFD9FF030E05
:1015C000E126FE0EDB50080802E2000E19D0FE0EE6
:1015D000DBCF4EF3DF6A03014E51DF5C0AE2DF50DE
:1015E000EA6A460FE96E030EEA22A5C3EFFFDF2A7F
:1015F000F2D73E0E546F030E556F4F6B010E00D0A5
:10160000146E030EE15C02E2E16AE552E16E1450F1
:10161000E552E7CFD9FF120003013D51010A14E062
:10162000010A01E03BD04F51EA6A5425E96E555159
:10163000EA22EF50E66E41D9E55203014F2B4E519D
:101640004F5D01E34F6B2AD04F51EA6A5425E96E92
:101650005551EA22EF50E66E30D9E55203014F2B87
:101660004E514F5D01E34F6B502B000E51235251F1
:10167000505D5351515911E3506B516B3E0E54194B
:1016800002E1030E551905E1460E546F030E556F26
:1016900004D03E0E546F030E556F00D01200D9CF08
:1016A000E6FFE1CFD9FFE652DF6ADF6A03014E5160
:1016B000DF5C16E2DF50E76EFD0EDBCFE9FFFE0ECA
:1016C000DBCFEAFFE750E926000EEA22EF50E66E94
:1016D00053D9E552000902E1000E41D0DF2AE6D7D6
:1016E000DF6A4E51DF5C38E2DF50E76EFD0EDBCF84
:1016F000E9FFFE0EDBCFEAFFE750E926000EEA2203
:10170000EF50200809E1DF50EA6A3E0FE96E030E50
:10171000EA22A5C3EFFF1ED0DF50E76EFD0EDBCF40
:10172000E9FFFE0EDBCFEAFFE750E926000EEA22D2
:10173000EF50D00FEA6A9B0FE96E030EEA22EF50DA
:10174000E66EDF50EA6A3E0FE96E030EEA22E552CA
:10175000E750EF6EDF2AC5D74F6B010E00D0E55280
:10176000E552E7CFD9FF1200D9CFE6FFE1CFD9FF8D
:10177000E652DF6ADF6A03014E51DF5C19E2DF5097
:10178000E76EFD0EDBCFE9FFFE0EDBCFEAFFE75091
:10179000E926000EEA22EF50E66EDF50EA6A3E0FBD
:1017A000E96E030EEA22E552E750EF6EDF2AE3D737
:1017B0004F6BE552E552E7CFD9FF1200D9CFE6FFD4
:1017C000E1CFD9FFE652DF6AFE0EDBCF14F0030152
:1017D0004E51D880145402E2000E2DD0FD0EDBCF06
:1017E000E6FFCAD8E552000902E1000E24D0FD0E42
:1017F000DB5020080AE1FE0EDB50EA6A3E0FE96E7C
:10180000030EEA22A5C3EFFF14D0FD0EDB50D00F6C
:10181000EA6A9B0FE96E030EEA22EF50E66EFE0EB7
:10182000DB50EA6A3E0FE96E030EEA22E552E7500A
:10183000EF6E010E00D0E552E552E7CFD9FF12005E
:10184000D9CFE6FFE1CFD9FFFD0EDBCF52F3FE0E7D
:10185000DBCF53F3010E0F0B030105E0D890533398
:101860005233E806FBE10301506B516B010E3D6FF3
:10187000E552E7CFD9FF120003013E0E546F030E6D
:10188000556F3D6B1200D9CFE6FFE1CFD9FFE6528D
:10189000DF6A03014E51DF5C0AE2DF50EA6A3E0F65
:1018A000E96E030EEA22A5C3EFFFDF2AF2D74F6BE2
:1018B000E552E552E7CFD9FF1200D9CFE6FFE1CFDD
:1018C000D9FF80808082808480868088808AFE0E16
:1018D000DB1C836E03014F51050A15E0010A11E07C
:1018E000070A0DE0010A09E0030A05E0010A01E028
:1018F0000CD080900AD0809208D0809406D0809638
:1019000004D0809802D0809A00D0E552E7CFD9FF6A
:101910001200D9CFE6FFE1CFD9FF020EE126FE0E7D
:10192000DB50DF6EFE0EDBCFE6FFFD0EDB50E55237
:10193000E724DF5C17E2DF50EA6A3E0FE96E030E30
:10194000EA22010EEFCFDBFFDB508009E66EDF50AD
:10195000EA6A3E0FE96E030EEA22E552E750EF6EA7
:10196000DF2AE0D7020EE15C02E2E16AE552E16EB5
:10197000E552E7CFD9FF1200D9CFE6FFE1CFD9FF7B
:10198000E652DF6AFE0EDB50200803E1010EDF6E37
:101990000ED0300EF36EFE0EDBCFF4FFF350F45C8E
:1019A00006E3FE0EDB50390802E3010EDF6EDF5066
:1019B00000D0E552E552E7CFD9FF1200D9CFE6FFBC
:1019C000E1CFD9FFE652DF6ADF6A03014E51DF5CE7
:1019D00016E2DF50E76EFD0EDBCFE9FFFE0EDBCF38
:1019E000EAFFE750E926000EEA22EF50E66EC4DF78
:1019F000E552000902E1000E4AD0DF2AE6D7FC0ECC
:101A0000DB50DF6EFB0EDBCFE6FFFC0EDB50E5525A
:101A1000E724DF5C38E2DF50E76EFD0EDBCFE9FF45
:101A2000FE0EDBCFEAFFE750E926000EEA22EF5078
:101A3000200809E1DF50EA6A3E0FE96E030EEA2250
:101A4000A5C3EFFF1ED0DF50E76EFD0EDBCFE9FF31
:101A5000FE0EDBCFEAFFE750E926000EEA22EF5048
:101A6000D00FEA6A9B0FE96E030EEA22EF50E66E92
:101A7000DF50EA6A3E0FE96E030EEA22E552E750B4
:101A8000EF6EDF2ABFD703014F6B010E00D0E55286
:101A9000E552E7CFD9FF1200D9CFE6FFE1CFD9FF5A
:101AA000E652FD0EDBCF52F3FE0EDBCF53F3010EF9
:101AB0000F0B030105E0D89053335233E806FBE1E6
:101AC0000301506B516BFC0EDB50566F576BDF6A96
:101AD0004E51DF5C1CE2DF50146E156A565114182B
:101AE00002E15751151811E0DF50EA6A3E0FE96E26
:101AF000030EEA22EF50E66EDF50EA6A460FE96E07
:101B0000030EEA22E552E750EF6EDF2AE1D7460ED8
:101B10005625E96E030E5721EA6EEF6A010E3D6FFE
:0A1B2000E552E552E7CFD9FF1200AD
:061B2A00D9CFE6FFE1CF78
:101B3000D9FFE6528DD8DF6A080EDF5C09E2DF507C
:101B4000EA6A580FE96E030EEA22EF6ADF2AF4D739
:101B5000E552E552E7CFD9FF1200D9CFE6FFE1CF3A
:101B6000D9FF9BD8FC0EDBCFE6FFFD0EDBCFE6FFF7
:101B7000FE0EDBCFE6FFB9D8E552E552E552E5525D
:101B8000E7CFD9FF1200D9CFE6FFE1CFD9FFE65268
:101B9000FC0EDB50DF6EFB0EDB50D880DF541AE307
:101BA0007CD8DFCFE6FF176ADF34FE0B1736166EE0
:101BB000FD0EDB501624146EFE0EDB501720156E42
:101BC00014C0E6FF15C0E6FF90D8E552E552E55295
:101BD000DF2AE1D7E552E552E7CFD9FF1200D9CF8E
:101BE000E6FFE1CFD9FFE652DF6A57D8DF6A080E79
:101BF000DF5C15E2DFCFE6FF156ADF34FE0B15363A
:101C0000146E600E1426030E152214C0E6FF15C0D4
:101C1000E6FF6BD8E552E552E552DF2AE8D7E552F8
:101C2000E552E7CFD9FF1200D9CFE6FFE1CFD9FFC8
:101C3000FE0EEA6ADB34FE0BEA36E96E600EE92638
:101C4000030EEA22EF5000D0E552E7CFD9FF120091
:101C5000D9CFE6FFE1CFD9FFE652DF6A080EDF5C9D
:101C600017E2EA6ADF34FE0BEA36E96E600EE92617
:101C7000030EEA22EF6AEA6ADF34FE0BEA36E96E07
:101C8000600EE926030EEA22EE52EF6ADF2AE6D75B
:101C9000E552E552E7CFD9FF12008150010B030155
:101CA000586F8150020B01E0010E596F8150040BF7
:101CB00001E0010E5A6F8150080B01E0010E5B6FCD
:101CC0008150100B01E0010E5C6F8150200B01E090
:101CD000010E5D6F8150400B01E0010E5E6F81507F
:101CE000800B01E0010E5F6F1200D9CFE6FFE1CF5C
:101CF000D9FFFD0EDBCFE9FFFE0EDBCFEAFFEF5091
:101D0000010A3DE0010A01E074D0FC0EDB50EA6AF2
:101D1000580FE96E030EEA22EF50010B27E1FD0E8A
:101D2000DBCFE9FFFE0EDBCFEAFFEE52EF2AFD0E1E
:101D3000DBCFE9FFFE0EDBCFEAFFEECF14F0EFCFF3
:101D400015F0020E0001155C10E3FD0EDBCFE9FF7C
:101D5000FE0EDBCFEAFF010EEF6EFD0EDBCFE9FFDB
:101D6000FE0EDBCFEAFFEE52EF6A08D0FD0EDBCFAE
:101D7000E9FFFE0EDBCFEAFFEE52EF6A3AD0FC0E2F
:101D8000DB50EA6A580FE96E030EEA22EF50010BAE
:101D9000010826E1FD0EDBCFE9FFFE0EDBCFEAFFF7
:101DA000EE52EF2AFD0EDBCFE9FFFE0EDBCFEAFF9E
:101DB000EECF14F0EFCF15F0020E0001155C0FE32B
:101DC000FD0EDBCFE9FFFE0EDBCFEAFFEF6AFD0E73
:101DD000DBCFE9FFFE0EDBCFEAFFEE52EF6A08D061
:101DE000FD0EDBCFE9FFFE0EDBCFEAFFEE52EF6A1E
:0A1DF00000D0E552E7CFD9FF120042
:061DFA00D9CFE6FFE1CFA6
:101E0000D9FFE652200EE66EE66AA8EC13F0E55222
:101E1000E5520301006FBFEC14F003010051020A08
:101E20000EE0020A01E024D0849224D9010EE66E6D
:101E3000030EE66E4FEC0BF0E552E55219D0DF6A67
:101E4000060EDF5C0CE2DF50EA6A010FE96E030E5A
:101E5000EA22300EEF6EBFEC14F0DF2AF1D7010E4C
:101E6000E66E030EE66E4FEC0BF0E552E55200D045
:101E7000E552E552E7CFD9FF1200D9CFE6FFE1CF17
:101E8000D9FF020EE12603010051020A70E0030AA5
:101E900024E0010A01E08CD0020EE66E14EC0EF094
:101EA000E552010819E1E6D8B00EE66E030EE66EC3
:101EB00028EC07F0E552E552010EE66E200EE66EC4
:101EC000E66A2BEC13F0E552E552E552BFEC14F054
:101ED0000301010E006F84826BD0030EE66E14ECDA
:101EE0000EF0E552010831E1010EDB6A060EF36ED9
:101EF000010EDBCFF4FFF350F45C17E2010EDB5070
:101F0000EA6A010FE96E030EEA22EF50E66E010E57
:101F1000DB28E66EE66A2BEC13F0E552E552E5525B
:101F2000BFEC14F0010EDB2AE1D7020EE66E200EA4
:101F3000E66EE66A2BEC13F0E552E552E552BFEC93
:101F400014F00301020E006F33D0070EE66E030E8D
:101F5000E66E80EC06F0E552E55234D8010EE66EEE
:101F6000030EE66E4FEC0BF0E552E55221D0020E67
:101F7000E66E14EC0EF0E552010819E17BD8B00EC4
:101F8000E66E030EE66E28EC07F0E552E552010E10
:101F9000E66E200EE66EE66A2BEC13F0E552E55293
:101FA000E552BFEC14F00301010E006F01D000D028
:101FB000020EE15C02E2E16AE552E16EE552E7CF32
:101FC000D9FF1200D9CFE6FFE1CFD9FF030EE126FA
:101FD000DF6A0AC3DFFFDF06DF0404E1240E03012A
:101FE000092714D0020EDF5C04E1480E0301092723
:101FF0000DD0030EDF5C04E1720E0301092706D049
:10200000040EDF5C03E1960E03010927990E03011C
:10201000095D08E1590E085D05E1590E075D02E111
:10202000020E006F0F0E0715300F016FF00E07152F
:10203000E8380F0B300F026F0F0E0815300F036FCB
:10204000F00E0815E8380F0B300F046F0F0E09154E
:10205000300F056FF00E0915E8380F0B300F066FC3
:10206000030EE15C02E2E16AE552E16EE552E7CF80
:10207000D9FF1200D9CFE6FFE1CFD9FF020EE1264A
:10208000DF6A060EDF5C0AE2DF50EA6A010FE96EE2
:10209000030EEA22300EEF6EDF2AF3D7020EE15C68
:1020A00002E2E16AE552E16EE552E7CFD9FF1200A4
:1020B000C76AC78E590EC86E280EC66EC56A9E9630
:1020C000A196948694881200949694988288828629
:1020D000050EE66EB4EC14F0E5528298050EE66E3D
:1020E000B4EC14F0E5528296050EE66EB4EC14F0F2
:1020F000E5521200949694988298050EE66EB4EC20
:1021000014F0E5528286050EE66EB4EC14F0E5524A
:1021100082881200D9CFE6FFE1CFD9FFE65294962C
:102120009488DF6ADF500A080EE3050EE66EB4EC11
:1021300014F0E5528286050EE66EB4EC14F0E5521A
:102140008296DF2AEFD7E552E552E7CFD9FF12009A
:10215000D9CFE6FFE1CFD9FFE65294969498DF6A93
:10216000080EDF5C25E2FE0EDB50800B02E0010E64
:1021700001D0000EE8B08288E8A08298030EE66ED7
:10218000B4EC14F0E5528286060EE66EB4EC14F060
:10219000E5528296020EE66EB4EC14F0E552FE0EA5
:1021A000DBCFF3FFF39EF346F3CFDBFFDF2AD8D775
:1021B0009488020EE66EB4EC14F0E5528286060EA8
:1021C000E66EB4EC14F0E5528296060EE66EB4ECC0
:1021D00014F0E552E552E552E7CFD9FF1200D9CF0E
:1021E000E6FFE1CFD9FF020EE126DF6A94969498CC
:1021F0009488010EDB6A080EF36E010EDBCFF4FF4C
:10220000F350F45C17E28286060EE66EB4EC14F02E
:10221000E552DF9EDF468250100B01E0010EDF1019
:10222000DF6E8296060EE66EB4EC14F0E552010EF7
:10223000DB2AE1D79498FE0EDB0402E1829801D0FC
:102240008288020EE66EB4EC14F0E5528286060E29
:10225000E66EB4EC14F0E5528296060EE66EB4EC2F
:1022600014F0E552DF50146E020EE15C03E200D080
:10227000E16AE552E16E1450E552E7CFD9FF120052
:10228000D9CFE6FFE1CFD9FFE6521EDFFE0EDBCF4E
:10229000E6FF5EDFE552FD0EDBCFE6FF59DFE552DC
:1022A00013DFFE0EDB28E66E53DFE552E66A97DFAA
:1022B000E552DF6E1FDFDF5000D0E552E552E7CF79
:1022C000D9FF1200D9CFE6FFE1CFD9FFFDDEFE0E28
:1022D000DBCFE6FF3DDFE552FD0EDBCFE6FF38DF6B
:1022E000E552FC0EDBCFE6FF33DFE55203DFE552BC
:0622F000E7CFD9FF120048
:0A22F600DACFE4FFE2CFDAFFE9CF10
:10230000E4FFEACFE4FFF6CFE4FFF7CFE4FFF5CF39
:10231000E4FFF3CFE4FFF4CFE4FFFACFE4FF00EEF5
:1023200000F0140EE80403E3EECFE4FFFBD700EE69
:1023300014F0080EE80403E3EECFE4FFFBD7E65207
:10234000F2940301882B000E89238A2B8B238C2B7C
:102350008D238251831107E005D083C3FAFF030167
:102360008251F96EFADF80C3E6FF81C3E6FF43ECDA
:1023700014F0E552E552E55200EE1BF0080EE804B9
:1023800003E3E5CFEDFFFBD700EE13F0140EE804F6
:1023900003E3E5CFEDFFFBD7E5CFFAFFE5CFF4FF91
:1023A000E5CFF3FFE5CFF5FFE5CFF7FFE5CFF6FF8C
:1023B000E5CFEAFFE5CFE9FFE5CFDAFF1100DACF9D
:1023C000E4FFE2CFDAFFE9CFE4FFEACFE4FFF6CFA4
:1023D000E4FFF7CFE4FFF5CFE4FFF3CFE4FFF4CF62
:1023E000E4FFFACFE4FF00EE00F0140EE80403E38C
:1023F000EECFE4FFFBD700EE14F0080EE80403E391
:10240000EECFE4FFFBD7E6529E9084C3E6FF85C380
:10241000E6FF27EC14F0E552E552030186518711DF
:1024200007E005D087C3FAFF03018651F96EFADF92
:10243000E55200EE1BF0080EE80403E3E5CFEDFFE4
:10244000FBD700EE13F0140EE80403E3E5CFEDFF35
:10245000FBD7E5CFFAFFE5CFF4FFE5CFF3FFE5CFFC
:10246000F5FFE5CFF7FFE5CFF6FFE5CFEAFFE5CFD4
:10247000E9FFE5CFDAFF1100D9CFE6FFE1CFD9FFC1
:102480009F0EE66E5FEC14F0E552FD0EDBCF80F39D
:10249000FE0EDBCF81F3FB0EDBCF82F3FC0EDBCF36
:1024A00083F3FD0EDBCFE6FFFE0EDBCFE6FF43EC52
:1024B00014F0E552E552E552E7CFD9FF1200D9CF2B
:1024C000E6FFE1CFD9FFC50EE66ECAEC13F0E55288
:1024D000FD0EDBCFE6FFFE0EDBCFE6FF27EC14F0B0
:1024E000E552E5529F80FD0EDBCF84F3FE0EDBCF7D
:1024F00085F3FB0EDBCF86F3FC0EDBCF87F3E552D3
:06250000E7CFD9FF120035
:0A250600D9CFE6FFE1CFD9FF040EA4
:10251000E126DF6A030EDB6A09EC14F09EEC0AF098
:10252000060EE66EDBEC0AF0E552000EE66EE66A99
:10253000BF0EE66EE00EE66E3CEC12F0E552E552A0
:10254000E552E552180EE66E160EE66E5F0EE66E6A
:10255000F00EE66E5FEC12F0E552E552E552E55200
:10256000FDEC0EF00DEC00F00301F40E885D010EA1
:10257000895905E3AAEC14F00301886B896B030108
:102580000A0E8A5D000E8B5906E3EFEC0DF0030195
:102590008A6B8B6BDF2A0A0EDF5C03E33DEC0FF0E6
:1025A000DF6AE2D7040EE15C02E2E16AE552E16E25
:0825B000E552E7CFD9FF12004C
:0825B800500EF66E000EF76EE6
:1025C000000EF86E03010900F550AB6F0900F550DD
:1025D000AC6F03E1AB6701D03DD00900F550A66FA9
:1025E0000900F550A76F0900F550A86F0900090010
:1025F000F550E96E0900F550EA6E0900090009007E
:10260000F550A96F0900F550AA6F09000900F6CF2F
:10261000ADF3F7CFAEF3F8CFAFF3A6C3F6FFA7C382
:10262000F7FFA8C3F8FF0301A95302E1AA5307E08B
:102630000900F550EE6EA907F8E2AA07F9D7ADC375
:10264000F6FFAEC3F7FFAFC3F8FF0301AB07000E01
:06265000AC5BBFD71200D5
:0A265600D9CFE6FFDACFE6FFE1CFAF
:10266000D9FFE2CFDAFFE652DF6AFF0EE76EFC0E1B
:10267000DBCF14F0E75014161450A96EFB0EDB509C
:10268000A86EA69EA69CA684F250800B01E0010EC7
:10269000DF6EF29E550EA76EAA0EA76EA682A6B298
:1026A000FED7DF50E8B0F28EE8A0F29EA694E55285
:0C26B000E552E5CFDAFFE7CFD9FF1200BA
:0426BC00446563000E
:1026C0004E6F76004F63740053657000417567006C
:1026D0004A756C004A756E004D6179004170720058
:1026E0004D617200466562004A616E00536174007C
:1026F000467269005468750057656400547565003A
:082700004D6F6E0053756E0071
:08270800056A046A036A026A13
:10271000200EE76ED89006360736083609360236A0
:102720000336043605360B50025C0C5003580D502E
:1027300004580E50055809E30B50025E0C50035A22
:102740000D50045A0E50055A062AE72EE4D71200FF
:10275000D9CFE6FFDACFE6FFE1CFD9FFE2CFDAFF4C
:10276000FF0EE76EFC0EDBCF14F0FD0EDBCF15F095
:10277000E7501416156A1450A96EA69CA69EA68052
:1027800000000000A85000D0E552E5CFDAFFE7CF07
:04279000D9FF12005B
:0C279400D9CFE6FFDACFE6FFE1CFD9FF96
:1027A000E2CFDAFFFD0EDB507E0BCD6EFD0EDBAC13
:1027B00002D0CD8E01D0CD9ECF6ACE6A9E90DBAE88
:1027C00002D09D8001D09D90CD80E552E5CFDAFF0B
:0627D000E7CFD9FF120063
:0A27D60008C012F008500D02F4CF05
:1027E00007F0F3CF06F009500E02F4CF09F0F3CF53
:1027F00008F00D02F3500726F4500822E86A092277
:1028000012500E02F3500726F4500822E86A0922FB
:02281000000CBA
:0E281200C26A0F0EC16E700ED3129B8C949092
:10282000949C948E956A9290929292949296929899
:10283000929A969293809382938493869388938CB2
:0E284000938C938E949694989690F19E12002D
:02284E00D9CFE0
:10285000E6FFDACFE6FFE1CFD9FFE2CFDAFFE652BB
:10286000E652FC0EDBCFDEFFDBCFDDFF010EDB50DF
:10287000CF6EDF50CE6EE552E552E552E5CFDAFF7E
:06288000E7CFD9FF1200B2
:0A288600D9CFE6FFDACFE6FFE1CF7D
:10289000D9FFE2CFDAFFE652E652FC0EDBCFDEFFD5
:1028A000DBCFDDFF010EDB50D76EDF50D66EE55279
:0E28B000E552E552E5CFDAFFE7CFD9FF12007F
:0228BE00D9CF70
:1028C000E6FFDACFE6FFE1CFD9FFE2CFDAFFFD0E78
:1028D000DB507F0BD56ED76AD66AF294FD0EDBAE65
:1028E00002D0F28A01D0F29AD58EE552E5CFDAFF16
:0628F000E7CFD9FF120042
:0A28F600000EF36E00EE00F0060E77
:1029000001D81200EA6002D0EE6AFCD7F350E96009
:062910001200EE6AFCD784
:0A29160010EE80F020EE80F0F86A69
:10292000019CDCEC12F003EC00F083EC12F0FBD71E
:02293000120093
:0E293200056A080EE76ED890093605360E507D
:0E294000055C02E3056E092AE72EF7D71200A8
:02294E00030183
:10295000B86B12000301B80503E1B86B849003D093
:08296000010EB86F8480120023
:08296800FF0EE350E84E1200DF
:0E297000000000D000D000D0E82EFAD71200F0
:02297E00A6B2FF
:04298000FED712006C
:0C29840000000000000000000000000047
:092990000000000000000000003E
:072999000000000000000037
:1029A0000000000000000000000000000000000027
:0129B0000026
:0F29B10000000000000000000000000000000017
:0C29C0000000000000000000000000000B
:0429CC000000000007
:0A29D00000000000000000000000FD
:0629DA000004270027FCA9
:1029E00026F826F426F026EC26E826E426E026DC67
:1029F00026D826D426D026CC26C826C426C026BC57
:022A00002600AE
:0D2A02004944454F4E4943530033363237A7
:012A0F003F87
:0A2A1000065B4F666D7D077F6F00C7
:062A1A00000000010101B3
:012A200014A1
:020000040030CA
:0100010008F6
:010002001BE2
:0100030012EA
:010005008179
:010006008178
:010008000FE8
:01000900C036
:01000A000FE6
:01000B00E014
:01000C000FE4
:01000D0040B2
:00000001FF
